{
  "_format": "hh-sol-artifact-1",
  "contractName": "AaveStakingAdapter",
  "sourceName": "contracts/AaveStakingAdapter.sol",
  "abi": [
    {
      "inputs": [
        {
          "internalType": "address",
          "name": "_lendingPoolAddressesProvider",
          "type": "address"
        },
        {
          "internalType": "address",
          "name": "_wethGateway",
          "type": "address"
        },
        {
          "internalType": "address",
          "name": "_aWethAddress",
          "type": "address"
        }
      ],
      "stateMutability": "nonpayable",
      "type": "constructor"
    },
    {
      "inputs": [
        {
          "internalType": "uint256",
          "name": "_amount",
          "type": "uint256"
        },
        {
          "internalType": "address[5]",
          "name": "_data",
          "type": "address[5]"
        }
      ],
      "name": "deposit",
      "outputs": [],
      "stateMutability": "nonpayable",
      "type": "function"
    },
    {
      "inputs": [
        {
          "internalType": "address",
          "name": "_addr",
          "type": "address"
        }
      ],
      "name": "getAllowance",
      "outputs": [
        {
          "internalType": "uint256",
          "name": "",
          "type": "uint256"
        }
      ],
      "stateMutability": "view",
      "type": "function"
    },
    {
      "inputs": [],
      "name": "getApprovalData",
      "outputs": [
        {
          "internalType": "address",
          "name": "",
          "type": "address"
        },
        {
          "internalType": "address",
          "name": "",
          "type": "address"
        }
      ],
      "stateMutability": "view",
      "type": "function"
    },
    {
      "inputs": [
        {
          "internalType": "address",
          "name": "_addr",
          "type": "address"
        }
      ],
      "name": "getStakedAmount",
      "outputs": [
        {
          "internalType": "uint256",
          "name": "",
          "type": "uint256"
        }
      ],
      "stateMutability": "view",
      "type": "function"
    },
    {
      "inputs": [],
      "name": "getWithdrawData",
      "outputs": [
        {
          "internalType": "address[5]",
          "name": "",
          "type": "address[5]"
        }
      ],
      "stateMutability": "view",
      "type": "function"
    },
    {
      "inputs": [],
      "name": "name",
      "outputs": [
        {
          "internalType": "bytes32",
          "name": "",
          "type": "bytes32"
        }
      ],
      "stateMutability": "pure",
      "type": "function"
    },
    {
      "inputs": [
        {
          "internalType": "uint256",
          "name": "_amount",
          "type": "uint256"
        },
        {
          "internalType": "address[5]",
          "name": "_data",
          "type": "address[5]"
        }
      ],
      "name": "withdraw",
      "outputs": [
        {
          "internalType": "uint256",
          "name": "",
          "type": "uint256"
        }
      ],
      "stateMutability": "nonpayable",
      "type": "function"
    }
  ],
  "bytecode": "0x60806040523480156200001157600080fd5b5060405162000ff838038062000ff8833981810160405281019062000037919062000119565b826000806101000a81548173ffffffffffffffffffffffffffffffffffffffff021916908373ffffffffffffffffffffffffffffffffffffffff16021790555081600160006101000a81548173ffffffffffffffffffffffffffffffffffffffff021916908373ffffffffffffffffffffffffffffffffffffffff16021790555080600260006101000a81548173ffffffffffffffffffffffffffffffffffffffff021916908373ffffffffffffffffffffffffffffffffffffffff160217905550505050620001bd565b6000815190506200011381620001a3565b92915050565b6000806000606084860312156200012f57600080fd5b60006200013f8682870162000102565b9350506020620001528682870162000102565b9250506040620001658682870162000102565b9150509250925092565b60006200017c8262000183565b9050919050565b600073ffffffffffffffffffffffffffffffffffffffff82169050919050565b620001ae816200016f565b8114620001ba57600080fd5b50565b610e2b80620001cd6000396000f3fe608060405234801561001057600080fd5b506004361061007d5760003560e01c80634da6a5561161005b5780634da6a556146100ec578063a13be8771461011c578063b213ed181461013b578063eb5a662e146101595761007d565b806306fdde0314610082578063230b5e90146100a0578063391179b3146100d0575b600080fd5b61008a610189565b6040516100979190610c15565b60405180910390f35b6100ba60048036038101906100b59190610a52565b6101b1565b6040516100c79190610c30565b60405180910390f35b6100ea60048036038101906100e59190610a52565b610406565b005b610106600480360381019061010191906109d7565b61057a565b6040516101139190610c30565b60405180910390f35b610124610633565b604051610132929190610b63565b60405180910390f35b610143610684565b6040516101509190610bfa565b60405180910390f35b610173600480360381019061016e91906109d7565b6107fa565b6040516101809190610c30565b60405180910390f35b60007f4141564500000000000000000000000000000000000000000000000000000000905090565b600080826000600581106101ee577f4e487b7100000000000000000000000000000000000000000000000000000000600052603260045260246000fd5b602002015173ffffffffffffffffffffffffffffffffffffffff16630261bf8b6040518163ffffffff1660e01b815260040160206040518083038186803b15801561023857600080fd5b505afa15801561024c573d6000803e3d6000fd5b505050506040513d601f19601f820116820180604052508101906102709190610a00565b90506000836002600581106102ae577f4e487b7100000000000000000000000000000000000000000000000000000000600052603260045260246000fd5b602002015173ffffffffffffffffffffffffffffffffffffffff166370a08231306040518263ffffffff1660e01b81526004016102eb9190610b48565b60206040518083038186803b15801561030357600080fd5b505afa158015610317573d6000803e3d6000fd5b505050506040513d601f19601f8201168201806040525081019061033b9190610a29565b90506000858261034b9190610ccf565b905084600160058110610387577f4e487b7100000000000000000000000000000000000000000000000000000000600052603260045260246000fd5b602002015173ffffffffffffffffffffffffffffffffffffffff166380500d208483306040518463ffffffff1660e01b81526004016103c893929190610bc3565b600060405180830381600087803b1580156103e257600080fd5b505af11580156103f6573d6000803e3d6000fd5b5050505080935050505092915050565b600081600060058110610442577f4e487b7100000000000000000000000000000000000000000000000000000000600052603260045260246000fd5b602002015173ffffffffffffffffffffffffffffffffffffffff16630261bf8b6040518163ffffffff1660e01b815260040160206040518083038186803b15801561048c57600080fd5b505afa1580156104a0573d6000803e3d6000fd5b505050506040513d601f19601f820116820180604052508101906104c49190610a00565b905081600160058110610500577f4e487b7100000000000000000000000000000000000000000000000000000000600052603260045260246000fd5b602002015173ffffffffffffffffffffffffffffffffffffffff1663474cf53d84833060006040518563ffffffff1660e01b815260040161054393929190610b8c565b6000604051808303818588803b15801561055c57600080fd5b505af1158015610570573d6000803e3d6000fd5b5050505050505050565b600080600260009054906101000a900473ffffffffffffffffffffffffffffffffffffffff1673ffffffffffffffffffffffffffffffffffffffff166370a08231846040518263ffffffff1660e01b81526004016105d89190610b48565b60206040518083038186803b1580156105f057600080fd5b505afa158015610604573d6000803e3d6000fd5b505050506040513d601f19601f820116820180604052508101906106289190610a29565b905080915050919050565b600080600260009054906101000a900473ffffffffffffffffffffffffffffffffffffffff16600160009054906101000a900473ffffffffffffffffffffffffffffffffffffffff16915091509091565b61068c6108d7565b6040518060a0016040528060008054906101000a900473ffffffffffffffffffffffffffffffffffffffff1673ffffffffffffffffffffffffffffffffffffffff1673ffffffffffffffffffffffffffffffffffffffff168152602001600160009054906101000a900473ffffffffffffffffffffffffffffffffffffffff1673ffffffffffffffffffffffffffffffffffffffff1673ffffffffffffffffffffffffffffffffffffffff168152602001600260009054906101000a900473ffffffffffffffffffffffffffffffffffffffff1673ffffffffffffffffffffffffffffffffffffffff1673ffffffffffffffffffffffffffffffffffffffff168152602001600073ffffffffffffffffffffffffffffffffffffffff1673ffffffffffffffffffffffffffffffffffffffff168152602001600073ffffffffffffffffffffffffffffffffffffffff1673ffffffffffffffffffffffffffffffffffffffff16815250905090565b600080600260009054906101000a900473ffffffffffffffffffffffffffffffffffffffff1673ffffffffffffffffffffffffffffffffffffffff1663dd62ed3e84600160009054906101000a900473ffffffffffffffffffffffffffffffffffffffff166040518363ffffffff1660e01b815260040161087c929190610b63565b60206040518083038186803b15801561089457600080fd5b505afa1580156108a8573d6000803e3d6000fd5b505050506040513d601f19601f820116820180604052508101906108cc9190610a29565b905080915050919050565b6040518060a00160405280600590602082028036833780820191505090505090565b600061090c61090784610c7c565b610c4b565b9050808285602086028201111561092257600080fd5b60005b858110156109525781610938888261095c565b845260208401935060208301925050600181019050610925565b5050509392505050565b60008135905061096b81610dc7565b92915050565b60008151905061098081610dc7565b92915050565b600082601f83011261099757600080fd5b60056109a48482856108f9565b91505092915050565b6000813590506109bc81610dde565b92915050565b6000815190506109d181610dde565b92915050565b6000602082840312156109e957600080fd5b60006109f78482850161095c565b91505092915050565b600060208284031215610a1257600080fd5b6000610a2084828501610971565b91505092915050565b600060208284031215610a3b57600080fd5b6000610a49848285016109c2565b91505092915050565b60008060c08385031215610a6557600080fd5b6000610a73858286016109ad565b9250506020610a8485828601610986565b9150509250929050565b6000610a9a8383610aa6565b60208301905092915050565b610aaf81610d03565b82525050565b610abe81610d03565b82525050565b610acd81610cac565b610ad78184610cc4565b9250610ae282610ca2565b8060005b83811015610b13578151610afa8782610a8e565b9650610b0583610cb7565b925050600181019050610ae6565b505050505050565b610b2481610d15565b82525050565b610b3381610d57565b82525050565b610b4281610d4d565b82525050565b6000602082019050610b5d6000830184610ab5565b92915050565b6000604082019050610b786000830185610ab5565b610b856020830184610ab5565b9392505050565b6000606082019050610ba16000830186610ab5565b610bae6020830185610ab5565b610bbb6040830184610b2a565b949350505050565b6000606082019050610bd86000830186610ab5565b610be56020830185610b39565b610bf26040830184610ab5565b949350505050565b600060a082019050610c0f6000830184610ac4565b92915050565b6000602082019050610c2a6000830184610b1b565b92915050565b6000602082019050610c456000830184610b39565b92915050565b6000604051905081810181811067ffffffffffffffff82111715610c7257610c71610d98565b5b8060405250919050565b600067ffffffffffffffff821115610c9757610c96610d98565b5b602082029050919050565b6000819050919050565b600060059050919050565b6000602082019050919050565b600081905092915050565b6000610cda82610d4d565b9150610ce583610d4d565b925082821015610cf857610cf7610d69565b5b828203905092915050565b6000610d0e82610d2d565b9050919050565b6000819050919050565b600061ffff82169050919050565b600073ffffffffffffffffffffffffffffffffffffffff82169050919050565b6000819050919050565b6000610d6282610d1f565b9050919050565b7f4e487b7100000000000000000000000000000000000000000000000000000000600052601160045260246000fd5b7f4e487b7100000000000000000000000000000000000000000000000000000000600052604160045260246000fd5b610dd081610d03565b8114610ddb57600080fd5b50565b610de781610d4d565b8114610df257600080fd5b5056fea264697066735822122092d140e23f565f28f3ed9de789b154d970205209f6279d0c3317bdc4220d3b6b64736f6c63430008000033",
  "linkReferences": {},
  "deployedLinkReferences": {}
}