{
  "_format": "hh-sol-artifact-1",
  "contractName": "PlasmidsFactory",
  "sourceName": "contracts/PlasmidsFactory.sol",
  "abi": [
    {
      "inputs": [
        {
          "internalType": "address",
          "name": "_nftAddress",
          "type": "address"
        },
        {
          "internalType": "uint256",
          "name": "_maxSupply",
          "type": "uint256"
        },
        {
          "internalType": "uint256",
          "name": "_mintingPrice",
          "type": "uint256"
        },
        {
          "internalType": "address",
          "name": "_stakingAdapterAddress",
          "type": "address"
        },
        {
          "internalType": "address",
          "name": "_charityAddress",
          "type": "address"
        }
      ],
      "stateMutability": "nonpayable",
      "type": "constructor"
    },
    {
      "anonymous": false,
      "inputs": [
        {
          "indexed": true,
          "internalType": "address",
          "name": "sender",
          "type": "address"
        },
        {
          "indexed": false,
          "internalType": "string",
          "name": "dna",
          "type": "string"
        }
      ],
      "name": "DnaGenerated",
      "type": "event"
    },
    {
      "anonymous": false,
      "inputs": [
        {
          "indexed": false,
          "internalType": "uint256",
          "name": "newId",
          "type": "uint256"
        },
        {
          "indexed": true,
          "internalType": "address",
          "name": "owner",
          "type": "address"
        },
        {
          "indexed": false,
          "internalType": "string",
          "name": "imageURI",
          "type": "string"
        },
        {
          "indexed": false,
          "internalType": "string",
          "name": "metadataURI",
          "type": "string"
        },
        {
          "indexed": false,
          "internalType": "string",
          "name": "dna",
          "type": "string"
        },
        {
          "indexed": false,
          "internalType": "bool",
          "name": "isSpecial",
          "type": "bool"
        },
        {
          "indexed": false,
          "internalType": "uint256",
          "name": "weight",
          "type": "uint256"
        }
      ],
      "name": "Minted",
      "type": "event"
    },
    {
      "anonymous": false,
      "inputs": [
        {
          "indexed": true,
          "internalType": "address",
          "name": "previousOwner",
          "type": "address"
        },
        {
          "indexed": true,
          "internalType": "address",
          "name": "newOwner",
          "type": "address"
        }
      ],
      "name": "OwnershipTransferred",
      "type": "event"
    },
    {
      "anonymous": false,
      "inputs": [
        {
          "indexed": false,
          "internalType": "uint256",
          "name": "amount",
          "type": "uint256"
        }
      ],
      "name": "SentToCharity",
      "type": "event"
    },
    {
      "anonymous": false,
      "inputs": [
        {
          "indexed": false,
          "internalType": "uint256",
          "name": "pendingStake",
          "type": "uint256"
        },
        {
          "indexed": false,
          "internalType": "uint256",
          "name": "stakedAmount",
          "type": "uint256"
        }
      ],
      "name": "Staked",
      "type": "event"
    },
    {
      "anonymous": false,
      "inputs": [
        {
          "indexed": false,
          "internalType": "uint256",
          "name": "withdrawal",
          "type": "uint256"
        }
      ],
      "name": "Withdrawn",
      "type": "event"
    },
    {
      "inputs": [
        {
          "internalType": "uint256",
          "name": "",
          "type": "uint256"
        }
      ],
      "name": "attributes",
      "outputs": [
        {
          "internalType": "uint256",
          "name": "",
          "type": "uint256"
        }
      ],
      "stateMutability": "view",
      "type": "function"
    },
    {
      "inputs": [
        {
          "internalType": "address",
          "name": "_oldOwner",
          "type": "address"
        },
        {
          "internalType": "address",
          "name": "_newOwner",
          "type": "address"
        },
        {
          "internalType": "uint256",
          "name": "_tokenId",
          "type": "uint256"
        }
      ],
      "name": "changeNFTOwner",
      "outputs": [],
      "stateMutability": "nonpayable",
      "type": "function"
    },
    {
      "inputs": [],
      "name": "charityAddress",
      "outputs": [
        {
          "internalType": "address",
          "name": "",
          "type": "address"
        }
      ],
      "stateMutability": "view",
      "type": "function"
    },
    {
      "inputs": [],
      "name": "currentYield",
      "outputs": [
        {
          "internalType": "uint256",
          "name": "",
          "type": "uint256"
        }
      ],
      "stateMutability": "view",
      "type": "function"
    },
    {
      "inputs": [],
      "name": "getBalance",
      "outputs": [
        {
          "internalType": "uint256",
          "name": "",
          "type": "uint256"
        }
      ],
      "stateMutability": "view",
      "type": "function"
    },
    {
      "inputs": [],
      "name": "getFactoryInfo",
      "outputs": [
        {
          "internalType": "uint256",
          "name": "",
          "type": "uint256"
        },
        {
          "internalType": "uint256",
          "name": "",
          "type": "uint256"
        },
        {
          "internalType": "uint256",
          "name": "",
          "type": "uint256"
        },
        {
          "internalType": "uint256",
          "name": "",
          "type": "uint256"
        },
        {
          "internalType": "uint256",
          "name": "",
          "type": "uint256"
        }
      ],
      "stateMutability": "view",
      "type": "function"
    },
    {
      "inputs": [],
      "name": "getRandomDna",
      "outputs": [],
      "stateMutability": "nonpayable",
      "type": "function"
    },
    {
      "inputs": [],
      "name": "lastWithdrawBlock",
      "outputs": [
        {
          "internalType": "uint256",
          "name": "",
          "type": "uint256"
        }
      ],
      "stateMutability": "view",
      "type": "function"
    },
    {
      "inputs": [],
      "name": "maxInitialWeight",
      "outputs": [
        {
          "internalType": "uint256",
          "name": "",
          "type": "uint256"
        }
      ],
      "stateMutability": "view",
      "type": "function"
    },
    {
      "inputs": [],
      "name": "maxSupply",
      "outputs": [
        {
          "internalType": "uint256",
          "name": "",
          "type": "uint256"
        }
      ],
      "stateMutability": "view",
      "type": "function"
    },
    {
      "inputs": [],
      "name": "maxWeight",
      "outputs": [
        {
          "internalType": "uint256",
          "name": "",
          "type": "uint256"
        }
      ],
      "stateMutability": "view",
      "type": "function"
    },
    {
      "inputs": [
        {
          "internalType": "string",
          "name": "_imageURI",
          "type": "string"
        },
        {
          "internalType": "string",
          "name": "_metadataURI",
          "type": "string"
        }
      ],
      "name": "mintNFT",
      "outputs": [],
      "stateMutability": "payable",
      "type": "function"
    },
    {
      "inputs": [],
      "name": "mintingPrice",
      "outputs": [
        {
          "internalType": "uint256",
          "name": "",
          "type": "uint256"
        }
      ],
      "stateMutability": "view",
      "type": "function"
    },
    {
      "inputs": [],
      "name": "owner",
      "outputs": [
        {
          "internalType": "address",
          "name": "",
          "type": "address"
        }
      ],
      "stateMutability": "view",
      "type": "function"
    },
    {
      "inputs": [],
      "name": "pendingStake",
      "outputs": [
        {
          "internalType": "uint256",
          "name": "",
          "type": "uint256"
        }
      ],
      "stateMutability": "view",
      "type": "function"
    },
    {
      "inputs": [
        {
          "internalType": "address",
          "name": "_addr",
          "type": "address"
        }
      ],
      "name": "pendingToRedeem",
      "outputs": [
        {
          "internalType": "uint256",
          "name": "",
          "type": "uint256"
        }
      ],
      "stateMutability": "view",
      "type": "function"
    },
    {
      "inputs": [],
      "name": "pendingYield",
      "outputs": [
        {
          "internalType": "uint256",
          "name": "",
          "type": "uint256"
        }
      ],
      "stateMutability": "view",
      "type": "function"
    },
    {
      "inputs": [],
      "name": "redeem",
      "outputs": [],
      "stateMutability": "nonpayable",
      "type": "function"
    },
    {
      "inputs": [],
      "name": "renounceOwnership",
      "outputs": [],
      "stateMutability": "nonpayable",
      "type": "function"
    },
    {
      "inputs": [],
      "name": "sendToCharity",
      "outputs": [],
      "stateMutability": "nonpayable",
      "type": "function"
    },
    {
      "inputs": [
        {
          "internalType": "address",
          "name": "_addr",
          "type": "address"
        }
      ],
      "name": "setCharityAddress",
      "outputs": [],
      "stateMutability": "nonpayable",
      "type": "function"
    },
    {
      "inputs": [
        {
          "internalType": "uint256",
          "name": "_maxSupply",
          "type": "uint256"
        }
      ],
      "name": "setMaxSupply",
      "outputs": [],
      "stateMutability": "nonpayable",
      "type": "function"
    },
    {
      "inputs": [
        {
          "internalType": "uint256",
          "name": "_mintingPrice",
          "type": "uint256"
        }
      ],
      "name": "setMintingPrice",
      "outputs": [],
      "stateMutability": "nonpayable",
      "type": "function"
    },
    {
      "inputs": [
        {
          "internalType": "uint256",
          "name": "_specialProbability",
          "type": "uint256"
        }
      ],
      "name": "setSpecialProbability",
      "outputs": [],
      "stateMutability": "nonpayable",
      "type": "function"
    },
    {
      "inputs": [],
      "name": "specialProbability",
      "outputs": [
        {
          "internalType": "uint256",
          "name": "",
          "type": "uint256"
        }
      ],
      "stateMutability": "view",
      "type": "function"
    },
    {
      "inputs": [],
      "name": "stake",
      "outputs": [],
      "stateMutability": "nonpayable",
      "type": "function"
    },
    {
      "inputs": [],
      "name": "stakedAmount",
      "outputs": [
        {
          "internalType": "uint256",
          "name": "",
          "type": "uint256"
        }
      ],
      "stateMutability": "view",
      "type": "function"
    },
    {
      "inputs": [],
      "name": "totalSentToCharity",
      "outputs": [
        {
          "internalType": "uint256",
          "name": "",
          "type": "uint256"
        }
      ],
      "stateMutability": "view",
      "type": "function"
    },
    {
      "inputs": [],
      "name": "totalWeight",
      "outputs": [
        {
          "internalType": "uint256",
          "name": "",
          "type": "uint256"
        }
      ],
      "stateMutability": "view",
      "type": "function"
    },
    {
      "inputs": [
        {
          "internalType": "address",
          "name": "newOwner",
          "type": "address"
        }
      ],
      "name": "transferOwnership",
      "outputs": [],
      "stateMutability": "nonpayable",
      "type": "function"
    },
    {
      "inputs": [],
      "name": "unclaimedYield",
      "outputs": [
        {
          "internalType": "uint256",
          "name": "",
          "type": "uint256"
        }
      ],
      "stateMutability": "view",
      "type": "function"
    },
    {
      "inputs": [
        {
          "internalType": "address",
          "name": "",
          "type": "address"
        }
      ],
      "name": "users",
      "outputs": [
        {
          "internalType": "uint256",
          "name": "numNfts",
          "type": "uint256"
        },
        {
          "internalType": "uint256",
          "name": "numSpecialNfts",
          "type": "uint256"
        },
        {
          "internalType": "uint256",
          "name": "userWeight",
          "type": "uint256"
        },
        {
          "internalType": "uint256",
          "name": "lastRedeemBlock",
          "type": "uint256"
        },
        {
          "internalType": "bool",
          "name": "exists",
          "type": "bool"
        }
      ],
      "stateMutability": "view",
      "type": "function"
    },
    {
      "inputs": [],
      "name": "weightIncrement",
      "outputs": [
        {
          "internalType": "uint256",
          "name": "",
          "type": "uint256"
        }
      ],
      "stateMutability": "view",
      "type": "function"
    },
    {
      "inputs": [],
      "name": "withdraw",
      "outputs": [],
      "stateMutability": "nonpayable",
      "type": "function"
    },
    {
      "stateMutability": "payable",
      "type": "receive"
    }
  ],
  "bytecode": "0x60806040523480156200001157600080fd5b5060405162004848380380620048488339818101604052810190620000379190620002b5565b6000620000496200027f60201b60201c565b9050806000806101000a81548173ffffffffffffffffffffffffffffffffffffffff021916908373ffffffffffffffffffffffffffffffffffffffff1602179055508073ffffffffffffffffffffffffffffffffffffffff16600073ffffffffffffffffffffffffffffffffffffffff167f8be0079c531659141344cd1fd0a4f28419497f9722a3daafe3b4186f6b6457e060405160405180910390a3506001808190555084600260006101000a81548173ffffffffffffffffffffffffffffffffffffffff021916908373ffffffffffffffffffffffffffffffffffffffff16021790555081600360006101000a81548173ffffffffffffffffffffffffffffffffffffffff021916908373ffffffffffffffffffffffffffffffffffffffff1602179055508360048190555082600581905550603260068190555043600c8190555080601260006101000a81548173ffffffffffffffffffffffffffffffffffffffff021916908373ffffffffffffffffffffffffffffffffffffffff160217905550600780806001815401808255809150506001900390600052602060002001600090919091909150556007600590806001815401808255809150506001900390600052602060002001600090919091909150556007600390806001815401808255809150506001900390600052602060002001600090919091909150556007600390806001815401808255809150506001900390600052602060002001600090919091909150555050505050620003a9565b600033905090565b600081519050620002988162000375565b92915050565b600081519050620002af816200038f565b92915050565b600080600080600060a08688031215620002ce57600080fd5b6000620002de8882890162000287565b9550506020620002f1888289016200029e565b945050604062000304888289016200029e565b9350506060620003178882890162000287565b92505060806200032a8882890162000287565b9150509295509295909350565b600062000344826200034b565b9050919050565b600073ffffffffffffffffffffffffffffffffffffffff82169050919050565b6000819050919050565b620003808162000337565b81146200038c57600080fd5b50565b6200039a816200036b565b8114620003a657600080fd5b50565b61448f80620003b96000396000f3fe6080604052600436106101fd5760003560e01c8063844d5c721161010d578063d05dcc6a116100a0578063dbb048731161006f578063dbb0487314610692578063e8bafde7146106bd578063e9605544146106e8578063ed77c4e314610704578063f2fde38b1461074157610204565b8063d05dcc6a146105e8578063d4432e4e14610625578063d5abeb0114610650578063d7e5d8ac1461067b57610204565b8063a87430ba116100dc578063a87430ba1461053a578063a8b0bb831461057b578063afcf2fc4146105a6578063be040fb0146105d157610204565b8063844d5c72146104905780638da5cb5b146104b957806396c82e57146104e45780639e0796d01461050f57610204565b8063560b346c11610190578063715018a61161015f578063715018a6146103cb578063782be8dd146103e25780637874ae2e1461041157806378a642f21461043c5780638417b47f1461046757610204565b8063560b346c1461033757806356fa666f146103625780636b74b7351461038b5780636f8b44b0146103a257610204565b806335db70b5116101cc57806335db70b5146102b3578063373d6132146102de5780633a4b66f1146103095780633ccfd60b1461032057610204565b80630c9be46d1461020957806312065fe0146102325780631c105d631461025d5780632fa20a8e1461028857610204565b3661020457005b600080fd5b34801561021557600080fd5b50610230600480360381019061022b9190613199565b61076a565b005b34801561023e57600080fd5b5061024761089a565b6040516102549190613e78565b60405180910390f35b34801561026957600080fd5b506102726108a2565b60405161027f9190613e78565b60405180910390f35b34801561029457600080fd5b5061029d6108a8565b6040516102aa9190613e78565b60405180910390f35b3480156102bf57600080fd5b506102c86108ad565b6040516102d59190613e78565b60405180910390f35b3480156102ea57600080fd5b506102f36108b3565b6040516103009190613e78565b60405180910390f35b34801561031557600080fd5b5061031e6108b9565b005b34801561032c57600080fd5b506103356109f7565b005b34801561034357600080fd5b5061034c610d79565b6040516103599190613e78565b60405180910390f35b34801561036e57600080fd5b506103896004803603810190610384919061330b565b610d7f565b005b34801561039757600080fd5b506103a0610e56565b005b3480156103ae57600080fd5b506103c960048036038101906103c4919061330b565b61103e565b005b3480156103d757600080fd5b506103e06111a6565b005b3480156103ee57600080fd5b506103f76112e0565b604051610408959493929190613fae565b60405180910390f35b34801561041d57600080fd5b506104266113a5565b6040516104339190613e78565b60405180910390f35b34801561044857600080fd5b506104516113ab565b60405161045e9190613e78565b60405180910390f35b34801561047357600080fd5b5061048e6004803603810190610489919061330b565b6113b1565b005b34801561049c57600080fd5b506104b760048036038101906104b291906131fe565b611437565b005b3480156104c557600080fd5b506104ce61154c565b6040516104db9190613b4c565b60405180910390f35b3480156104f057600080fd5b506104f9611575565b6040516105069190613e78565b60405180910390f35b34801561051b57600080fd5b5061052461157b565b6040516105319190613e78565b60405180910390f35b34801561054657600080fd5b50610561600480360381019061055c9190613199565b611581565b604051610572959493929190613f5b565b60405180910390f35b34801561058757600080fd5b506105906115c4565b60405161059d9190613e78565b60405180910390f35b3480156105b257600080fd5b506105bb6115ca565b6040516105c89190613b4c565b60405180910390f35b3480156105dd57600080fd5b506105e66115f0565b005b3480156105f457600080fd5b5061060f600480360381019061060a919061330b565b611843565b60405161061c9190613e78565b60405180910390f35b34801561063157600080fd5b5061063a611867565b6040516106479190613e78565b60405180910390f35b34801561065c57600080fd5b5061066561186d565b6040516106729190613e78565b60405180910390f35b34801561068757600080fd5b50610690611873565b005b34801561069e57600080fd5b506106a7611aba565b6040516106b49190613e78565b60405180910390f35b3480156106c957600080fd5b506106d2611ac0565b6040516106df9190613e78565b60405180910390f35b61070260048036038101906106fd919061329f565b611ac6565b005b34801561071057600080fd5b5061072b60048036038101906107269190613199565b611f67565b6040516107389190613e78565b60405180910390f35b34801561074d57600080fd5b5061076860048036038101906107639190613199565b612076565b005b61077261221f565b73ffffffffffffffffffffffffffffffffffffffff1661079061154c565b73ffffffffffffffffffffffffffffffffffffffff16146107e6576040517f08c379a00000000000000000000000000000000000000000000000000000000081526004016107dd90613d78565b60405180910390fd5b600073ffffffffffffffffffffffffffffffffffffffff168173ffffffffffffffffffffffffffffffffffffffff161415610856576040517f08c379a000000000000000000000000000000000000000000000000000000000815260040161084d90613c58565b60405180910390fd5b80601260006101000a81548173ffffffffffffffffffffffffffffffffffffffff021916908373ffffffffffffffffffffffffffffffffffffffff16021790555050565b600047905090565b60115481565b600a81565b60055481565b600d5481565b6108c161221f565b73ffffffffffffffffffffffffffffffffffffffff166108df61154c565b73ffffffffffffffffffffffffffffffffffffffff1614610935576040517f08c379a000000000000000000000000000000000000000000000000000000000815260040161092c90613d78565b60405180910390fd5b6002600154141561097b576040517f08c379a000000000000000000000000000000000000000000000000000000000815260040161097290613e18565b60405180910390fd5b600260018190555061098e600e54612227565b600e54600d60008282546109a291906140f2565b925050819055507f925435fa7e37e5d9555bb18ce0d62bb9627d0846942e58e5291e9a2dded462ed600e54600d546040516109de929190613f32565b60405180910390a16000600e8190555060018081905550565b6109ff61221f565b73ffffffffffffffffffffffffffffffffffffffff16610a1d61154c565b73ffffffffffffffffffffffffffffffffffffffff1614610a73576040517f08c379a0000000000000000000000000000000000000000000000000000000008152600401610a6a90613d78565b60405180910390fd5b60026001541415610ab9576040517f08c379a0000000000000000000000000000000000000000000000000000000008152600401610ab090613e18565b60405180910390fd5b60026001819055506000600360009054906101000a900473ffffffffffffffffffffffffffffffffffffffff1673ffffffffffffffffffffffffffffffffffffffff1663b213ed186040518163ffffffff1660e01b815260040160a060405180830381600087803b158015610b2d57600080fd5b505af1158015610b41573d6000803e3d6000fd5b505050506040513d601f19601f82011682018060405250810190610b65919061324d565b9050600080600360009054906101000a900473ffffffffffffffffffffffffffffffffffffffff1673ffffffffffffffffffffffffffffffffffffffff16600d5484604051602401610bb8929190613e93565b6040516020818303038152906040527f230b5e90000000000000000000000000000000000000000000000000000000007bffffffffffffffffffffffffffffffffffffffffffffffffffffffff19166020820180517bffffffffffffffffffffffffffffffffffffffffffffffffffffffff8381831617835250505050604051610c429190613a38565b600060405180830381855af49150503d8060008114610c7d576040519150601f19603f3d011682016040523d82523d6000602084013e610c82565b606091505b509150915081610cc7576040517f08c379a0000000000000000000000000000000000000000000000000000000008152600401610cbe90613d58565b60405180910390fd5b600081806020019051810190610cdd9190613334565b905080600f6000828254610cf191906140f2565b9250508190555060105460116000828254610d0c91906140f2565b92505081905550600f5460106000828254610d2791906140f2565b9250508190555043600c819055507f430648de173157e069201c943adb2d4e340e7cf5b27b1b09c9cb852f03d63b5681604051610d649190613e78565b60405180910390a15050505060018081905550565b60065481565b610d8761221f565b73ffffffffffffffffffffffffffffffffffffffff16610da561154c565b73ffffffffffffffffffffffffffffffffffffffff1614610dfb576040517f08c379a0000000000000000000000000000000000000000000000000000000008152600401610df290613d78565b60405180910390fd5b60008110158015610e0d575060648111155b610e4c576040517f08c379a0000000000000000000000000000000000000000000000000000000008152600401610e4390613cf8565b60405180910390fd5b8060068190555050565b600454600260009054906101000a900473ffffffffffffffffffffffffffffffffffffffff1673ffffffffffffffffffffffffffffffffffffffff166318160ddd6040518163ffffffff1660e01b815260040160206040518083038186803b158015610ec157600080fd5b505afa158015610ed5573d6000803e3d6000fd5b505050506040513d601f19601f82011682018060405250810190610ef99190613334565b10610f39576040517f08c379a0000000000000000000000000000000000000000000000000000000008152600401610f3090613e38565b60405180910390fd5b600080610f45826125be565b90505b600981604051610f589190613a4f565b908152602001604051809103902060009054906101000a900460ff1615610f9857600182610f8691906140f2565b9150610f91826125be565b9050610f48565b80600860003373ffffffffffffffffffffffffffffffffffffffff1673ffffffffffffffffffffffffffffffffffffffff1681526020019081526020016000209080519060200190610feb929190612f9b565b503373ffffffffffffffffffffffffffffffffffffffff167f28bb9b46bad59470dc97d59462efa1e9668696b018146f219ccf4daef2d151a0826040516110329190613c06565b60405180910390a25050565b61104661221f565b73ffffffffffffffffffffffffffffffffffffffff1661106461154c565b73ffffffffffffffffffffffffffffffffffffffff16146110ba576040517f08c379a00000000000000000000000000000000000000000000000000000000081526004016110b190613d78565b60405180910390fd5b600260009054906101000a900473ffffffffffffffffffffffffffffffffffffffff1673ffffffffffffffffffffffffffffffffffffffff166318160ddd6040518163ffffffff1660e01b815260040160206040518083038186803b15801561112257600080fd5b505afa158015611136573d6000803e3d6000fd5b505050506040513d601f19601f8201168201806040525081019061115a9190613334565b81101561119c576040517f08c379a000000000000000000000000000000000000000000000000000000000815260040161119390613e58565b60405180910390fd5b8060048190555050565b6111ae61221f565b73ffffffffffffffffffffffffffffffffffffffff166111cc61154c565b73ffffffffffffffffffffffffffffffffffffffff1614611222576040517f08c379a000000000000000000000000000000000000000000000000000000000815260040161121990613d78565b60405180910390fd5b600073ffffffffffffffffffffffffffffffffffffffff1660008054906101000a900473ffffffffffffffffffffffffffffffffffffffff1673ffffffffffffffffffffffffffffffffffffffff167f8be0079c531659141344cd1fd0a4f28419497f9722a3daafe3b4186f6b6457e060405160405180910390a360008060006101000a81548173ffffffffffffffffffffffffffffffffffffffff021916908373ffffffffffffffffffffffffffffffffffffffff160217905550565b6000806000806000600554600454600260009054906101000a900473ffffffffffffffffffffffffffffffffffffffff1673ffffffffffffffffffffffffffffffffffffffff166318160ddd6040518163ffffffff1660e01b815260040160206040518083038186803b15801561135657600080fd5b505afa15801561136a573d6000803e3d6000fd5b505050506040513d601f19601f8201168201806040525081019061138e9190613334565b600d54600f54945094509450945094509091929394565b61012c81565b600f5481565b6113b961221f565b73ffffffffffffffffffffffffffffffffffffffff166113d761154c565b73ffffffffffffffffffffffffffffffffffffffff161461142d576040517f08c379a000000000000000000000000000000000000000000000000000000000815260040161142490613d78565b60405180910390fd5b8060058190555050565b600260009054906101000a900473ffffffffffffffffffffffffffffffffffffffff1673ffffffffffffffffffffffffffffffffffffffff163373ffffffffffffffffffffffffffffffffffffffff16146114c7576040517f08c379a00000000000000000000000000000000000000000000000000000000081526004016114be90613d38565b60405180910390fd5b600073ffffffffffffffffffffffffffffffffffffffff168373ffffffffffffffffffffffffffffffffffffffff1614611547576000806115088584612673565b9150915060006040518060a0016040528085815260200184815260200184815260200143815260200183151581525090506115438582612922565b5050505b505050565b60008060009054906101000a900473ffffffffffffffffffffffffffffffffffffffff16905090565b600b5481565b600c5481565b600a6020528060005260406000206000915090508060000154908060010154908060020154908060030154908060040160009054906101000a900460ff16905085565b6103e881565b601260009054906101000a900473ffffffffffffffffffffffffffffffffffffffff1681565b60026001541415611636576040517f08c379a000000000000000000000000000000000000000000000000000000000815260040161162d90613e18565b60405180910390fd5b60026001819055506000600a60003373ffffffffffffffffffffffffffffffffffffffff1673ffffffffffffffffffffffffffffffffffffffff1681526020019081526020016000209050600c548160030154106116c9576040517f08c379a00000000000000000000000000000000000000000000000000000000081526004016116c090613dd8565b60405180910390fd5b6000816002015411611710576040517f08c379a000000000000000000000000000000000000000000000000000000000815260040161170790613cd8565b60405180910390fd5b600061171b33611f67565b905060008111611760576040517f08c379a000000000000000000000000000000000000000000000000000000000815260040161175790613df8565b60405180910390fd5b438260030181905550806010600082825461177b91906141d3565b9250508190555060003373ffffffffffffffffffffffffffffffffffffffff16826040516117a890613aac565b60006040518083038185875af1925050503d80600081146117e5576040519150601f19603f3d011682016040523d82523d6000602084013e6117ea565b606091505b505090508061182e576040517f08c379a000000000000000000000000000000000000000000000000000000000815260040161182590613cb8565b60405180910390fd5b61183733612aca565b50505060018081905550565b6007818154811061185357600080fd5b906000526020600020016000915090505481565b600e5481565b60045481565b61187b61221f565b73ffffffffffffffffffffffffffffffffffffffff1661189961154c565b73ffffffffffffffffffffffffffffffffffffffff16146118ef576040517f08c379a00000000000000000000000000000000000000000000000000000000081526004016118e690613d78565b60405180910390fd5b60026001541415611935576040517f08c379a000000000000000000000000000000000000000000000000000000000815260040161192c90613e18565b60405180910390fd5b6002600181905550600060115411611982576040517f08c379a000000000000000000000000000000000000000000000000000000000815260040161197990613c98565b60405180910390fd5b60006011549050600060118190555080601360008282546119a391906140f2565b925050819055506000601260009054906101000a900473ffffffffffffffffffffffffffffffffffffffff1673ffffffffffffffffffffffffffffffffffffffff16826040516119f290613aac565b60006040518083038185875af1925050503d8060008114611a2f576040519150601f19603f3d011682016040523d82523d6000602084013e611a34565b606091505b5050905080611a78576040517f08c379a0000000000000000000000000000000000000000000000000000000008152600401611a6f90613cb8565b60405180910390fd5b7ff80dbcfd0fb2d20a424f2503e4e99f3bc964d89e8302d36521aedea19ed5e95d82604051611aa79190613e78565b60405180910390a1505060018081905550565b60105481565b60135481565b60026001541415611b0c576040517f08c379a0000000000000000000000000000000000000000000000000000000008152600401611b0390613e18565b60405180910390fd5b60026001819055506005543414611b58576040517f08c379a0000000000000000000000000000000000000000000000000000000008152600401611b4f90613d18565b60405180910390fd5b600454600260009054906101000a900473ffffffffffffffffffffffffffffffffffffffff1673ffffffffffffffffffffffffffffffffffffffff166318160ddd6040518163ffffffff1660e01b815260040160206040518083038186803b158015611bc357600080fd5b505afa158015611bd7573d6000803e3d6000fd5b505050506040513d601f19601f82011682018060405250810190611bfb9190613334565b10611c3b576040517f08c379a0000000000000000000000000000000000000000000000000000000008152600401611c3290613e38565b60405180910390fd5b6000600860003373ffffffffffffffffffffffffffffffffffffffff1673ffffffffffffffffffffffffffffffffffffffff1681526020019081526020016000208054611c8790614291565b80601f0160208091040260200160405190810160405280929190818152602001828054611cb390614291565b8015611d005780601f10611cd557610100808354040283529160200191611d00565b820191906000526020600020905b815481529060010190602001808311611ce357829003601f168201915b505050505090506000815111611d4b576040517f08c379a0000000000000000000000000000000000000000000000000000000008152600401611d4290613d98565b60405180910390fd5b600080611d56612be5565b915091506000600260009054906101000a900473ffffffffffffffffffffffffffffffffffffffff1673ffffffffffffffffffffffffffffffffffffffff16631b1ecbc53386898988886040518763ffffffff1660e01b8152600401611dc196959493929190613b67565b602060405180830381600087803b158015611ddb57600080fd5b505af1158015611def573d6000803e3d6000fd5b505050506040513d601f19601f82011682018060405250810190611e139190613334565b905060006040518060a001604052808381526020018481526020018481526020014381526020018515158152509050611e4c3382612922565b60405180602001604052806000815250600860003373ffffffffffffffffffffffffffffffffffffffff1673ffffffffffffffffffffffffffffffffffffffff1681526020019081526020016000209080519060200190611eae929190612f9b565b506001600986604051611ec19190613a4f565b908152602001604051809103902060006101000a81548160ff02191690831515021790555034600e6000828254611ef891906140f2565b925050819055503373ffffffffffffffffffffffffffffffffffffffff167f43de79bf410fc7b6846221fa9912e72b62d0d7e1e27fc31a6d8c568ec22859a0838989898989604051611f4f96959493929190613ebc565b60405180910390a25050505050600180819055505050565b600080600a60008473ffffffffffffffffffffffffffffffffffffffff1673ffffffffffffffffffffffffffffffffffffffff16815260200190815260200160002060040160009054906101000a900460ff16801561200857506000600a60008573ffffffffffffffffffffffffffffffffffffffff1673ffffffffffffffffffffffffffffffffffffffff16815260200190815260200160002060020154115b1561206d57600b54600a60008573ffffffffffffffffffffffffffffffffffffffff1673ffffffffffffffffffffffffffffffffffffffff16815260200190815260200160002060020154600f546120609190614179565b61206a9190614148565b90505b80915050919050565b61207e61221f565b73ffffffffffffffffffffffffffffffffffffffff1661209c61154c565b73ffffffffffffffffffffffffffffffffffffffff16146120f2576040517f08c379a00000000000000000000000000000000000000000000000000000000081526004016120e990613d78565b60405180910390fd5b600073ffffffffffffffffffffffffffffffffffffffff168173ffffffffffffffffffffffffffffffffffffffff161415612162576040517f08c379a000000000000000000000000000000000000000000000000000000000815260040161215990613c78565b60405180910390fd5b8073ffffffffffffffffffffffffffffffffffffffff1660008054906101000a900473ffffffffffffffffffffffffffffffffffffffff1673ffffffffffffffffffffffffffffffffffffffff167f8be0079c531659141344cd1fd0a4f28419497f9722a3daafe3b4186f6b6457e060405160405180910390a3806000806101000a81548173ffffffffffffffffffffffffffffffffffffffff021916908373ffffffffffffffffffffffffffffffffffffffff16021790555050565b600033905090565b600080600360009054906101000a900473ffffffffffffffffffffffffffffffffffffffff1673ffffffffffffffffffffffffffffffffffffffff1663a13be8776040518163ffffffff1660e01b81526004016040805180830381600087803b15801561229357600080fd5b505af11580156122a7573d6000803e3d6000fd5b505050506040513d601f19601f820116820180604052508101906122cb91906131c2565b91509150600073ffffffffffffffffffffffffffffffffffffffff168173ffffffffffffffffffffffffffffffffffffffff16146123b2578173ffffffffffffffffffffffffffffffffffffffff1663095ea7b3827fffffffffffffffffffffffffffffffffffffffffffffffffffffffffffffffff6040518363ffffffff1660e01b815260040161235e929190613bdd565b602060405180830381600087803b15801561237857600080fd5b505af115801561238c573d6000803e3d6000fd5b505050506040513d601f19601f820116820180604052508101906123b09190613276565b505b6000600360009054906101000a900473ffffffffffffffffffffffffffffffffffffffff1673ffffffffffffffffffffffffffffffffffffffff1663b213ed186040518163ffffffff1660e01b815260040160a060405180830381600087803b15801561241e57600080fd5b505af1158015612432573d6000803e3d6000fd5b505050506040513d601f19601f82011682018060405250810190612456919061324d565b9050600080600360009054906101000a900473ffffffffffffffffffffffffffffffffffffffff1673ffffffffffffffffffffffffffffffffffffffff1686846040516024016124a7929190613e93565b6040516020818303038152906040527f391179b3000000000000000000000000000000000000000000000000000000007bffffffffffffffffffffffffffffffffffffffffffffffffffffffff19166020820180517bffffffffffffffffffffffffffffffffffffffffffffffffffffffff83818316178352505050506040516125319190613a38565b600060405180830381855af49150503d806000811461256c576040519150601f19603f3d011682016040523d82523d6000602084013e612571565b606091505b5091509150816125b6576040517f08c379a00000000000000000000000000000000000000000000000000000000081526004016125ad90613db8565b60405180910390fd5b505050505050565b60608060005b60078054905081101561266957600061262160078381548110612610577f4e487b7100000000000000000000000000000000000000000000000000000000600052603260045260246000fd5b906000526020600020015486612c9a565b9050600061262e82612cdf565b90508381604051602001612643929190613a66565b604051602081830303815290604052935050508080612661906142c3565b9150506125c4565b5080915050919050565b6000806000600a60008673ffffffffffffffffffffffffffffffffffffffff1673ffffffffffffffffffffffffffffffffffffffff16815260200190815260200160002090506000806000805b8460050180549050811015612910578785600501828154811061270c577f4e487b7100000000000000000000000000000000000000000000000000000000600052603260045260246000fd5b90600052602060002090600502016000015414156128a357846005018181548110612760577f4e487b7100000000000000000000000000000000000000000000000000000000600052603260045260246000fd5b90600052602060002090600502016001015492508460050181815481106127b0577f4e487b7100000000000000000000000000000000000000000000000000000000600052603260045260246000fd5b9060005260206000209060050201600201549350846005018181548110612800577f4e487b7100000000000000000000000000000000000000000000000000000000600052603260045260246000fd5b906000526020600020906005020160040160009054906101000a900460ff16915084600501818154811061285d577f4e487b7100000000000000000000000000000000000000000000000000000000600052603260045260246000fd5b90600052602060002090600502016000808201600090556001820160009055600282016000905560038201600090556004820160006101000a81549060ff021916905550505b838560020160008282546128b791906141d3565b9250508190555060018560000160008282546128d391906141d3565b9250508190555081156128fd5760018560010160008282546128f591906141d3565b925050819055505b8080612908906142c3565b9150506126c0565b50818195509550505050509250929050565b6000600a60008473ffffffffffffffffffffffffffffffffffffffff1673ffffffffffffffffffffffffffffffffffffffff168152602001908152602001600020905060018160040160006101000a81548160ff02191690831515021790555043816003018190555081604001518160020160008282546129a391906140f2565b92505081905550806005018290806001815401808255809150506001900390600052602060002090600502016000909190919091506000820151816000015560208201518160010155604082015181600201556060820151816003015560808201518160040160006101000a81548160ff02191690831515021790555050506001816000016000828254612a3791906140f2565b92505081905550612a816040518060400160405280600381526020017f696e6300000000000000000000000000000000000000000000000000000000008152508260000154612d29565b8160400151600b6000828254612a9791906140f2565b92505081905550816080015115612ac5576001816001016000828254612abd91906140f2565b925050819055505b505050565b6000600a60008373ffffffffffffffffffffffffffffffffffffffff1673ffffffffffffffffffffffffffffffffffffffff1681526020019081526020016000209050600080600090505b8260050180549050811015612bab57600a836005018281548110612b62577f4e487b7100000000000000000000000000000000000000000000000000000000600052603260045260246000fd5b90600052602060002090600502016002016000828254612b8291906140f2565b92505081905550600a82612b9691906140f2565b91508080612ba3906142c3565b915050612b15565b5080826002016000828254612bc091906140f2565b9250508190555080600b6000828254612bd991906140f2565b92505081905550505050565b60008060006064444243604051602001612c0193929190613ac1565b6040516020818303038152906040528051906020012060001c612c249190614316565b90506000600654821115905060008115612c8d5760018061012c612c4891906141d3565b444243604051602001612c5d93929190613ac1565b6040516020818303038152906040528051906020012060001c612c809190614316565b612c8a91906140f2565b90505b8181945094505050509091565b60008244424385604051602001612cb49493929190613afe565b6040516020818303038152906040528051906020012060001c612cd79190614316565b905092915050565b6060600a8210612cf957612cf282612dc5565b9050612d24565b612d0282612dc5565b604051602001612d129190613a8a565b60405160208183030381529060405290505b919050565b612dc18282604051602401612d3f929190613c28565b6040516020818303038152906040527f9710a9d0000000000000000000000000000000000000000000000000000000007bffffffffffffffffffffffffffffffffffffffffffffffffffffffff19166020820180517bffffffffffffffffffffffffffffffffffffffffffffffffffffffff8381831617835250505050612f72565b5050565b60606000821415612e0d576040518060400160405280600181526020017f30000000000000000000000000000000000000000000000000000000000000008152509050612f6d565b600082905060005b60008214612e3f578080612e28906142c3565b915050600a82612e389190614148565b9150612e15565b60008167ffffffffffffffff811115612e81577f4e487b7100000000000000000000000000000000000000000000000000000000600052604160045260246000fd5b6040519080825280601f01601f191660200182016040528015612eb35781602001600182028036833780820191505090505b5090505b60008514612f6657600182612ecc91906141d3565b9150600a85612edb9190614316565b6030612ee791906140f2565b60f81b818381518110612f23577f4e487b7100000000000000000000000000000000000000000000000000000000600052603260045260246000fd5b60200101907effffffffffffffffffffffffffffffffffffffffffffffffffffffffffffff1916908160001a905350600a85612f5f9190614148565b9450612eb7565b8093505050505b919050565b60008151905060006a636f6e736f6c652e6c6f679050602083016000808483855afa5050505050565b828054612fa790614291565b90600052602060002090601f016020900481019282612fc95760008555613010565b82601f10612fe257805160ff1916838001178555613010565b82800160010185558215613010579182015b8281111561300f578251825591602001919060010190612ff4565b5b50905061301d9190613021565b5090565b5b8082111561303a576000816000905550600101613022565b5090565b600061305161304c84614032565b614001565b9050808285602086028201111561306757600080fd5b60005b85811015613097578161307d88826130f4565b84526020840193506020830192505060018101905061306a565b5050509392505050565b60006130b46130af84614058565b614001565b9050828152602081018484840111156130cc57600080fd5b6130d784828561424f565b509392505050565b6000813590506130ee81614414565b92915050565b60008151905061310381614414565b92915050565b600082601f83011261311a57600080fd5b600561312784828561303e565b91505092915050565b60008151905061313f8161442b565b92915050565b600082601f83011261315657600080fd5b81356131668482602086016130a1565b91505092915050565b60008135905061317e81614442565b92915050565b60008151905061319381614442565b92915050565b6000602082840312156131ab57600080fd5b60006131b9848285016130df565b91505092915050565b600080604083850312156131d557600080fd5b60006131e3858286016130f4565b92505060206131f4858286016130f4565b9150509250929050565b60008060006060848603121561321357600080fd5b6000613221868287016130df565b9350506020613232868287016130df565b92505060406132438682870161316f565b9150509250925092565b600060a0828403121561325f57600080fd5b600061326d84828501613109565b91505092915050565b60006020828403121561328857600080fd5b600061329684828501613130565b91505092915050565b600080604083850312156132b257600080fd5b600083013567ffffffffffffffff8111156132cc57600080fd5b6132d885828601613145565b925050602083013567ffffffffffffffff8111156132f557600080fd5b61330185828601613145565b9150509250929050565b60006020828403121561331d57600080fd5b600061332b8482850161316f565b91505092915050565b60006020828403121561334657600080fd5b600061335484828501613184565b91505092915050565b60006133698383613375565b60208301905092915050565b61337e81614207565b82525050565b61338d81614207565b82525050565b61339c81614092565b6133a681846140c0565b92506133b182614088565b8060005b838110156133e25781516133c9878261335d565b96506133d4836140b3565b9250506001810190506133b5565b505050505050565b6133f381614219565b82525050565b60006134048261409d565b61340e81856140cb565b935061341e81856020860161425e565b80840191505092915050565b6000613435826140a8565b61343f81856140d6565b935061344f81856020860161425e565b61345881614403565b840191505092915050565b600061346e826140a8565b61347881856140e7565b935061348881856020860161425e565b80840191505092915050565b60006134a16001836140e7565b91507f30000000000000000000000000000000000000000000000000000000000000006000830152600182019050919050565b60006134e16014836140d6565b91507f4164647265737320697320696e636f72726563740000000000000000000000006000830152602082019050919050565b60006135216026836140d6565b91507f4f776e61626c653a206e6577206f776e657220697320746865207a65726f206160008301527f64647265737300000000000000000000000000000000000000000000000000006020830152604082019050919050565b60006135876025836140d6565b91507f4e6f7420656e6f75676820756e636c61696d6564207969656c6420746f20626560008301527f2073656e740000000000000000000000000000000000000000000000000000006020830152604082019050919050565b60006135ed6014836140d6565b91507f5472616e736665722066656573206661696c65640000000000000000000000006000830152602082019050919050565b600061362d601f836140d6565b91507f4e6f7420656e6f756768204e46542077656967687420746f2072656465656d006000830152602082019050919050565b600061366d6025836140d6565b91507f50726f626162696c6974792073686f756c64206265206265747765656e20302060008301527f2d203130300000000000000000000000000000000000000000000000000000006020830152604082019050919050565b60006136d36014836140d6565b91507f5072696365206973206e6f7420636f72726563740000000000000000000000006000830152602082019050919050565b6000613713601e836140d6565b91507f43616c6c6572206973206e6f7420746865204e465420636f6e747261637400006000830152602082019050919050565b60006137536017836140d6565b91507f5374616b696e67207769746864726177206661696c65640000000000000000006000830152602082019050919050565b60006137936020836140d6565b91507f4f776e61626c653a2063616c6c6572206973206e6f7420746865206f776e65726000830152602082019050919050565b60006137d3602b836140d6565b91507f53686f756c642067656e657261746520612072616e646f6d20444e412062656660008301527f6f7265206d696e74696e670000000000000000000000000000000000000000006020830152604082019050919050565b60006138396016836140d6565b91507f5374616b696e67206465706f736974206661696c6564000000000000000000006000830152602082019050919050565b60006138796016836140d6565b91507f5969656c6420616c72656164792072656465656d6564000000000000000000006000830152602082019050919050565b60006138b96000836140cb565b9150600082019050919050565b60006138d36022836140d6565b91507f596f7520646f206e6f74206861766520616e797468696e6720746f207265646560008301527f656d0000000000000000000000000000000000000000000000000000000000006020830152604082019050919050565b6000613939601f836140d6565b91507f5265656e7472616e637947756172643a207265656e7472616e742063616c6c006000830152602082019050919050565b6000613979601b836140d6565b91507f4d617820737570706c7920686173206265656e207265616368656400000000006000830152602082019050919050565b60006139b9602d836140d6565b91507f4d617820737570706c792063616e6e6f74206265206c657373207468616e206360008301527f757272656e7420737570706c79000000000000000000000000000000000000006020830152604082019050919050565b613a1b81614245565b82525050565b613a32613a2d82614245565b61430c565b82525050565b6000613a4482846133f9565b915081905092915050565b6000613a5b8284613463565b915081905092915050565b6000613a728285613463565b9150613a7e8284613463565b91508190509392505050565b6000613a9582613494565b9150613aa18284613463565b915081905092915050565b6000613ab7826138ac565b9150819050919050565b6000613acd8286613a21565b602082019150613add8285613a21565b602082019150613aed8284613a21565b602082019150819050949350505050565b6000613b0a8287613a21565b602082019150613b1a8286613a21565b602082019150613b2a8285613a21565b602082019150613b3a8284613a21565b60208201915081905095945050505050565b6000602082019050613b616000830184613384565b92915050565b600060c082019050613b7c6000830189613384565b8181036020830152613b8e818861342a565b90508181036040830152613ba2818761342a565b90508181036060830152613bb6818661342a565b9050613bc560808301856133ea565b613bd260a0830184613a12565b979650505050505050565b6000604082019050613bf26000830185613384565b613bff6020830184613a12565b9392505050565b60006020820190508181036000830152613c20818461342a565b905092915050565b60006040820190508181036000830152613c42818561342a565b9050613c516020830184613a12565b9392505050565b60006020820190508181036000830152613c71816134d4565b9050919050565b60006020820190508181036000830152613c9181613514565b9050919050565b60006020820190508181036000830152613cb18161357a565b9050919050565b60006020820190508181036000830152613cd1816135e0565b9050919050565b60006020820190508181036000830152613cf181613620565b9050919050565b60006020820190508181036000830152613d1181613660565b9050919050565b60006020820190508181036000830152613d31816136c6565b9050919050565b60006020820190508181036000830152613d5181613706565b9050919050565b60006020820190508181036000830152613d7181613746565b9050919050565b60006020820190508181036000830152613d9181613786565b9050919050565b60006020820190508181036000830152613db1816137c6565b9050919050565b60006020820190508181036000830152613dd18161382c565b9050919050565b60006020820190508181036000830152613df18161386c565b9050919050565b60006020820190508181036000830152613e11816138c6565b9050919050565b60006020820190508181036000830152613e318161392c565b9050919050565b60006020820190508181036000830152613e518161396c565b9050919050565b60006020820190508181036000830152613e71816139ac565b9050919050565b6000602082019050613e8d6000830184613a12565b92915050565b600060c082019050613ea86000830185613a12565b613eb56020830184613393565b9392505050565b600060c082019050613ed16000830189613a12565b8181036020830152613ee3818861342a565b90508181036040830152613ef7818761342a565b90508181036060830152613f0b818661342a565b9050613f1a60808301856133ea565b613f2760a0830184613a12565b979650505050505050565b6000604082019050613f476000830185613a12565b613f546020830184613a12565b9392505050565b600060a082019050613f706000830188613a12565b613f7d6020830187613a12565b613f8a6040830186613a12565b613f976060830185613a12565b613fa460808301846133ea565b9695505050505050565b600060a082019050613fc36000830188613a12565b613fd06020830187613a12565b613fdd6040830186613a12565b613fea6060830185613a12565b613ff76080830184613a12565b9695505050505050565b6000604051905081810181811067ffffffffffffffff82111715614028576140276143d4565b5b8060405250919050565b600067ffffffffffffffff82111561404d5761404c6143d4565b5b602082029050919050565b600067ffffffffffffffff821115614073576140726143d4565b5b601f19601f8301169050602081019050919050565b6000819050919050565b600060059050919050565b600081519050919050565b600081519050919050565b6000602082019050919050565b600081905092915050565b600081905092915050565b600082825260208201905092915050565b600081905092915050565b60006140fd82614245565b915061410883614245565b9250827fffffffffffffffffffffffffffffffffffffffffffffffffffffffffffffffff0382111561413d5761413c614347565b5b828201905092915050565b600061415382614245565b915061415e83614245565b92508261416e5761416d614376565b5b828204905092915050565b600061418482614245565b915061418f83614245565b9250817fffffffffffffffffffffffffffffffffffffffffffffffffffffffffffffffff04831182151516156141c8576141c7614347565b5b828202905092915050565b60006141de82614245565b91506141e983614245565b9250828210156141fc576141fb614347565b5b828203905092915050565b600061421282614225565b9050919050565b60008115159050919050565b600073ffffffffffffffffffffffffffffffffffffffff82169050919050565b6000819050919050565b82818337600083830152505050565b60005b8381101561427c578082015181840152602081019050614261565b8381111561428b576000848401525b50505050565b600060028204905060018216806142a957607f821691505b602082108114156142bd576142bc6143a5565b5b50919050565b60006142ce82614245565b91507fffffffffffffffffffffffffffffffffffffffffffffffffffffffffffffffff82141561430157614300614347565b5b600182019050919050565b6000819050919050565b600061432182614245565b915061432c83614245565b92508261433c5761433b614376565b5b828206905092915050565b7f4e487b7100000000000000000000000000000000000000000000000000000000600052601160045260246000fd5b7f4e487b7100000000000000000000000000000000000000000000000000000000600052601260045260246000fd5b7f4e487b7100000000000000000000000000000000000000000000000000000000600052602260045260246000fd5b7f4e487b7100000000000000000000000000000000000000000000000000000000600052604160045260246000fd5b6000601f19601f8301169050919050565b61441d81614207565b811461442857600080fd5b50565b61443481614219565b811461443f57600080fd5b50565b61444b81614245565b811461445657600080fd5b5056fea26469706673582212206c4da5c75107ac2c161f013e405a007909fdfffa005689bfdd872f5dba91ddf564736f6c63430008000033",
  "linkReferences": {},
  "deployedLinkReferences": {}
}