{
  "_format": "hh-sol-artifact-1",
  "contractName": "PlasmidsFactory",
  "sourceName": "contracts/PlasmidsFactory.sol",
  "abi": [
    {
      "inputs": [
        {
          "internalType": "address",
          "name": "_nftAddress",
          "type": "address"
        },
        {
          "internalType": "uint256",
          "name": "_maxSupply",
          "type": "uint256"
        },
        {
          "internalType": "uint256",
          "name": "_mintingPrice",
          "type": "uint256"
        },
        {
          "internalType": "address",
          "name": "_stakingAdapterAddress",
          "type": "address"
        },
        {
          "internalType": "address",
          "name": "_charityAddress",
          "type": "address"
        }
      ],
      "stateMutability": "nonpayable",
      "type": "constructor"
    },
    {
      "anonymous": false,
      "inputs": [
        {
          "indexed": true,
          "internalType": "address",
          "name": "sender",
          "type": "address"
        },
        {
          "indexed": false,
          "internalType": "string",
          "name": "dna",
          "type": "string"
        }
      ],
      "name": "DnaGenerated",
      "type": "event"
    },
    {
      "anonymous": false,
      "inputs": [
        {
          "indexed": false,
          "internalType": "uint256",
          "name": "newId",
          "type": "uint256"
        },
        {
          "indexed": true,
          "internalType": "address",
          "name": "owner",
          "type": "address"
        },
        {
          "indexed": false,
          "internalType": "string",
          "name": "imageURI",
          "type": "string"
        },
        {
          "indexed": false,
          "internalType": "string",
          "name": "metadataURI",
          "type": "string"
        },
        {
          "indexed": false,
          "internalType": "string",
          "name": "dna",
          "type": "string"
        },
        {
          "indexed": false,
          "internalType": "bool",
          "name": "isSpecial",
          "type": "bool"
        },
        {
          "indexed": false,
          "internalType": "uint256",
          "name": "weight",
          "type": "uint256"
        }
      ],
      "name": "Minted",
      "type": "event"
    },
    {
      "anonymous": false,
      "inputs": [
        {
          "indexed": true,
          "internalType": "address",
          "name": "previousOwner",
          "type": "address"
        },
        {
          "indexed": true,
          "internalType": "address",
          "name": "newOwner",
          "type": "address"
        }
      ],
      "name": "OwnershipTransferred",
      "type": "event"
    },
    {
      "anonymous": false,
      "inputs": [
        {
          "indexed": false,
          "internalType": "uint256",
          "name": "amount",
          "type": "uint256"
        }
      ],
      "name": "SentToCharity",
      "type": "event"
    },
    {
      "anonymous": false,
      "inputs": [
        {
          "indexed": false,
          "internalType": "uint256",
          "name": "pendingStake",
          "type": "uint256"
        },
        {
          "indexed": false,
          "internalType": "uint256",
          "name": "stakedAmount",
          "type": "uint256"
        }
      ],
      "name": "Staked",
      "type": "event"
    },
    {
      "anonymous": false,
      "inputs": [
        {
          "indexed": false,
          "internalType": "uint256",
          "name": "withdrawal",
          "type": "uint256"
        }
      ],
      "name": "Withdrawn",
      "type": "event"
    },
    {
      "inputs": [
        {
          "internalType": "uint256",
          "name": "",
          "type": "uint256"
        }
      ],
      "name": "attributes",
      "outputs": [
        {
          "internalType": "uint256",
          "name": "",
          "type": "uint256"
        }
      ],
      "stateMutability": "view",
      "type": "function"
    },
    {
      "inputs": [
        {
          "internalType": "address",
          "name": "_oldOwner",
          "type": "address"
        },
        {
          "internalType": "address",
          "name": "_newOwner",
          "type": "address"
        },
        {
          "internalType": "uint256",
          "name": "_tokenId",
          "type": "uint256"
        }
      ],
      "name": "changeNFTOwner",
      "outputs": [],
      "stateMutability": "nonpayable",
      "type": "function"
    },
    {
      "inputs": [],
      "name": "charityAddress",
      "outputs": [
        {
          "internalType": "address",
          "name": "",
          "type": "address"
        }
      ],
      "stateMutability": "view",
      "type": "function"
    },
    {
      "inputs": [],
      "name": "currentYield",
      "outputs": [
        {
          "internalType": "uint256",
          "name": "",
          "type": "uint256"
        }
      ],
      "stateMutability": "view",
      "type": "function"
    },
    {
      "inputs": [],
      "name": "getBalance",
      "outputs": [
        {
          "internalType": "uint256",
          "name": "",
          "type": "uint256"
        }
      ],
      "stateMutability": "view",
      "type": "function"
    },
    {
      "inputs": [],
      "name": "getFactoryInfo",
      "outputs": [
        {
          "internalType": "uint256",
          "name": "",
          "type": "uint256"
        },
        {
          "internalType": "uint256",
          "name": "",
          "type": "uint256"
        },
        {
          "internalType": "uint256",
          "name": "",
          "type": "uint256"
        },
        {
          "internalType": "uint256",
          "name": "",
          "type": "uint256"
        },
        {
          "internalType": "uint256",
          "name": "",
          "type": "uint256"
        }
      ],
      "stateMutability": "view",
      "type": "function"
    },
    {
      "inputs": [],
      "name": "getRandomDna",
      "outputs": [],
      "stateMutability": "nonpayable",
      "type": "function"
    },
    {
      "inputs": [],
      "name": "lastWithdrawBlock",
      "outputs": [
        {
          "internalType": "uint256",
          "name": "",
          "type": "uint256"
        }
      ],
      "stateMutability": "view",
      "type": "function"
    },
    {
      "inputs": [],
      "name": "maxInitialWeight",
      "outputs": [
        {
          "internalType": "uint256",
          "name": "",
          "type": "uint256"
        }
      ],
      "stateMutability": "view",
      "type": "function"
    },
    {
      "inputs": [],
      "name": "maxSupply",
      "outputs": [
        {
          "internalType": "uint256",
          "name": "",
          "type": "uint256"
        }
      ],
      "stateMutability": "view",
      "type": "function"
    },
    {
      "inputs": [],
      "name": "maxWeight",
      "outputs": [
        {
          "internalType": "uint256",
          "name": "",
          "type": "uint256"
        }
      ],
      "stateMutability": "view",
      "type": "function"
    },
    {
      "inputs": [
        {
          "internalType": "string",
          "name": "_imageURI",
          "type": "string"
        },
        {
          "internalType": "string",
          "name": "_metadataURI",
          "type": "string"
        }
      ],
      "name": "mintNFT",
      "outputs": [],
      "stateMutability": "payable",
      "type": "function"
    },
    {
      "inputs": [],
      "name": "mintingPrice",
      "outputs": [
        {
          "internalType": "uint256",
          "name": "",
          "type": "uint256"
        }
      ],
      "stateMutability": "view",
      "type": "function"
    },
    {
      "inputs": [],
      "name": "owner",
      "outputs": [
        {
          "internalType": "address",
          "name": "",
          "type": "address"
        }
      ],
      "stateMutability": "view",
      "type": "function"
    },
    {
      "inputs": [],
      "name": "pendingStake",
      "outputs": [
        {
          "internalType": "uint256",
          "name": "",
          "type": "uint256"
        }
      ],
      "stateMutability": "view",
      "type": "function"
    },
    {
      "inputs": [
        {
          "internalType": "address",
          "name": "_addr",
          "type": "address"
        }
      ],
      "name": "pendingToRedeem",
      "outputs": [
        {
          "internalType": "uint256",
          "name": "",
          "type": "uint256"
        }
      ],
      "stateMutability": "view",
      "type": "function"
    },
    {
      "inputs": [],
      "name": "pendingYield",
      "outputs": [
        {
          "internalType": "uint256",
          "name": "",
          "type": "uint256"
        }
      ],
      "stateMutability": "view",
      "type": "function"
    },
    {
      "inputs": [],
      "name": "redeem",
      "outputs": [],
      "stateMutability": "nonpayable",
      "type": "function"
    },
    {
      "inputs": [],
      "name": "renounceOwnership",
      "outputs": [],
      "stateMutability": "nonpayable",
      "type": "function"
    },
    {
      "inputs": [],
      "name": "sendToCharity",
      "outputs": [],
      "stateMutability": "nonpayable",
      "type": "function"
    },
    {
      "inputs": [
        {
          "internalType": "address",
          "name": "_addr",
          "type": "address"
        }
      ],
      "name": "setCharityAddress",
      "outputs": [],
      "stateMutability": "nonpayable",
      "type": "function"
    },
    {
      "inputs": [
        {
          "internalType": "uint256",
          "name": "_maxSupply",
          "type": "uint256"
        }
      ],
      "name": "setMaxSupply",
      "outputs": [],
      "stateMutability": "nonpayable",
      "type": "function"
    },
    {
      "inputs": [
        {
          "internalType": "uint256",
          "name": "_mintingPrice",
          "type": "uint256"
        }
      ],
      "name": "setMintingPrice",
      "outputs": [],
      "stateMutability": "nonpayable",
      "type": "function"
    },
    {
      "inputs": [
        {
          "internalType": "uint256",
          "name": "_specialProbability",
          "type": "uint256"
        }
      ],
      "name": "setSpecialProbability",
      "outputs": [],
      "stateMutability": "nonpayable",
      "type": "function"
    },
    {
      "inputs": [],
      "name": "specialProbability",
      "outputs": [
        {
          "internalType": "uint256",
          "name": "",
          "type": "uint256"
        }
      ],
      "stateMutability": "view",
      "type": "function"
    },
    {
      "inputs": [],
      "name": "stake",
      "outputs": [],
      "stateMutability": "nonpayable",
      "type": "function"
    },
    {
      "inputs": [],
      "name": "stakedAmount",
      "outputs": [
        {
          "internalType": "uint256",
          "name": "",
          "type": "uint256"
        }
      ],
      "stateMutability": "view",
      "type": "function"
    },
    {
      "inputs": [],
      "name": "totalSentToCharity",
      "outputs": [
        {
          "internalType": "uint256",
          "name": "",
          "type": "uint256"
        }
      ],
      "stateMutability": "view",
      "type": "function"
    },
    {
      "inputs": [],
      "name": "totalWeight",
      "outputs": [
        {
          "internalType": "uint256",
          "name": "",
          "type": "uint256"
        }
      ],
      "stateMutability": "view",
      "type": "function"
    },
    {
      "inputs": [
        {
          "internalType": "address",
          "name": "newOwner",
          "type": "address"
        }
      ],
      "name": "transferOwnership",
      "outputs": [],
      "stateMutability": "nonpayable",
      "type": "function"
    },
    {
      "inputs": [],
      "name": "unclaimedYield",
      "outputs": [
        {
          "internalType": "uint256",
          "name": "",
          "type": "uint256"
        }
      ],
      "stateMutability": "view",
      "type": "function"
    },
    {
      "inputs": [
        {
          "internalType": "address",
          "name": "",
          "type": "address"
        }
      ],
      "name": "users",
      "outputs": [
        {
          "internalType": "uint256",
          "name": "numNfts",
          "type": "uint256"
        },
        {
          "internalType": "uint256",
          "name": "numSpecialNfts",
          "type": "uint256"
        },
        {
          "internalType": "uint256",
          "name": "userWeight",
          "type": "uint256"
        },
        {
          "internalType": "uint256",
          "name": "lastRedeemBlock",
          "type": "uint256"
        },
        {
          "internalType": "bool",
          "name": "exists",
          "type": "bool"
        }
      ],
      "stateMutability": "view",
      "type": "function"
    },
    {
      "inputs": [],
      "name": "weightIncrement",
      "outputs": [
        {
          "internalType": "uint256",
          "name": "",
          "type": "uint256"
        }
      ],
      "stateMutability": "view",
      "type": "function"
    },
    {
      "inputs": [],
      "name": "withdraw",
      "outputs": [],
      "stateMutability": "nonpayable",
      "type": "function"
    },
    {
      "stateMutability": "payable",
      "type": "receive"
    }
  ],
  "bytecode": "0x60806040523480156200001157600080fd5b50604051620048eb380380620048eb833981810160405281019062000037919062000309565b600062000049620002d360201b60201c565b9050806000806101000a81548173ffffffffffffffffffffffffffffffffffffffff021916908373ffffffffffffffffffffffffffffffffffffffff1602179055508073ffffffffffffffffffffffffffffffffffffffff16600073ffffffffffffffffffffffffffffffffffffffff167f8be0079c531659141344cd1fd0a4f28419497f9722a3daafe3b4186f6b6457e060405160405180910390a3506001808190555084600260006101000a81548173ffffffffffffffffffffffffffffffffffffffff021916908373ffffffffffffffffffffffffffffffffffffffff16021790555081600360006101000a81548173ffffffffffffffffffffffffffffffffffffffff021916908373ffffffffffffffffffffffffffffffffffffffff1602179055508360048190555082600581905550603260068190555043600c8190555080601260006101000a81548173ffffffffffffffffffffffffffffffffffffffff021916908373ffffffffffffffffffffffffffffffffffffffff160217905550600780806001815401808255809150506001900390600052602060002001600090919091909150556007600590806001815401808255809150506001900390600052602060002001600090919091909150556007600490806001815401808255809150506001900390600052602060002001600090919091909150556007600590806001815401808255809150506001900390600052602060002001600090919091909150556007600390806001815401808255809150506001900390600052602060002001600090919091909150556007600490806001815401808255809150506001900390600052602060002001600090919091909150555050505050620003fd565b600033905090565b600081519050620002ec81620003c9565b92915050565b6000815190506200030381620003e3565b92915050565b600080600080600060a086880312156200032257600080fd5b60006200033288828901620002db565b95505060206200034588828901620002f2565b94505060406200035888828901620002f2565b93505060606200036b88828901620002db565b92505060806200037e88828901620002db565b9150509295509295909350565b600062000398826200039f565b9050919050565b600073ffffffffffffffffffffffffffffffffffffffff82169050919050565b6000819050919050565b620003d4816200038b565b8114620003e057600080fd5b50565b620003ee81620003bf565b8114620003fa57600080fd5b50565b6144de806200040d6000396000f3fe6080604052600436106101fd5760003560e01c8063844d5c721161010d578063d05dcc6a116100a0578063dbb048731161006f578063dbb0487314610692578063e8bafde7146106bd578063e9605544146106e8578063ed77c4e314610704578063f2fde38b1461074157610204565b8063d05dcc6a146105e8578063d4432e4e14610625578063d5abeb0114610650578063d7e5d8ac1461067b57610204565b8063a87430ba116100dc578063a87430ba1461053a578063a8b0bb831461057b578063afcf2fc4146105a6578063be040fb0146105d157610204565b8063844d5c72146104905780638da5cb5b146104b957806396c82e57146104e45780639e0796d01461050f57610204565b8063560b346c11610190578063715018a61161015f578063715018a6146103cb578063782be8dd146103e25780637874ae2e1461041157806378a642f21461043c5780638417b47f1461046757610204565b8063560b346c1461033757806356fa666f146103625780636b74b7351461038b5780636f8b44b0146103a257610204565b806335db70b5116101cc57806335db70b5146102b3578063373d6132146102de5780633a4b66f1146103095780633ccfd60b1461032057610204565b80630c9be46d1461020957806312065fe0146102325780631c105d631461025d5780632fa20a8e1461028857610204565b3661020457005b600080fd5b34801561021557600080fd5b50610230600480360381019061022b91906131e8565b61076a565b005b34801561023e57600080fd5b5061024761089a565b6040516102549190613ec7565b60405180910390f35b34801561026957600080fd5b506102726108a2565b60405161027f9190613ec7565b60405180910390f35b34801561029457600080fd5b5061029d6108a8565b6040516102aa9190613ec7565b60405180910390f35b3480156102bf57600080fd5b506102c86108ad565b6040516102d59190613ec7565b60405180910390f35b3480156102ea57600080fd5b506102f36108b3565b6040516103009190613ec7565b60405180910390f35b34801561031557600080fd5b5061031e6108b9565b005b34801561032c57600080fd5b506103356109f7565b005b34801561034357600080fd5b5061034c610d79565b6040516103599190613ec7565b60405180910390f35b34801561036e57600080fd5b506103896004803603810190610384919061335a565b610d7f565b005b34801561039757600080fd5b506103a0610e56565b005b3480156103ae57600080fd5b506103c960048036038101906103c4919061335a565b61103e565b005b3480156103d757600080fd5b506103e06111a6565b005b3480156103ee57600080fd5b506103f76112e0565b604051610408959493929190613ffd565b60405180910390f35b34801561041d57600080fd5b506104266113a5565b6040516104339190613ec7565b60405180910390f35b34801561044857600080fd5b506104516113ab565b60405161045e9190613ec7565b60405180910390f35b34801561047357600080fd5b5061048e6004803603810190610489919061335a565b6113b1565b005b34801561049c57600080fd5b506104b760048036038101906104b2919061324d565b611437565b005b3480156104c557600080fd5b506104ce61154c565b6040516104db9190613b9b565b60405180910390f35b3480156104f057600080fd5b506104f9611575565b6040516105069190613ec7565b60405180910390f35b34801561051b57600080fd5b5061052461157b565b6040516105319190613ec7565b60405180910390f35b34801561054657600080fd5b50610561600480360381019061055c91906131e8565b611581565b604051610572959493929190613faa565b60405180910390f35b34801561058757600080fd5b506105906115c4565b60405161059d9190613ec7565b60405180910390f35b3480156105b257600080fd5b506105bb6115ca565b6040516105c89190613b9b565b60405180910390f35b3480156105dd57600080fd5b506105e66115f0565b005b3480156105f457600080fd5b5061060f600480360381019061060a919061335a565b611843565b60405161061c9190613ec7565b60405180910390f35b34801561063157600080fd5b5061063a611867565b6040516106479190613ec7565b60405180910390f35b34801561065c57600080fd5b5061066561186d565b6040516106729190613ec7565b60405180910390f35b34801561068757600080fd5b50610690611873565b005b34801561069e57600080fd5b506106a7611aba565b6040516106b49190613ec7565b60405180910390f35b3480156106c957600080fd5b506106d2611ac0565b6040516106df9190613ec7565b60405180910390f35b61070260048036038101906106fd91906132ee565b611ac6565b005b34801561071057600080fd5b5061072b600480360381019061072691906131e8565b611f67565b6040516107389190613ec7565b60405180910390f35b34801561074d57600080fd5b50610768600480360381019061076391906131e8565b6120c5565b005b61077261226e565b73ffffffffffffffffffffffffffffffffffffffff1661079061154c565b73ffffffffffffffffffffffffffffffffffffffff16146107e6576040517f08c379a00000000000000000000000000000000000000000000000000000000081526004016107dd90613dc7565b60405180910390fd5b600073ffffffffffffffffffffffffffffffffffffffff168173ffffffffffffffffffffffffffffffffffffffff161415610856576040517f08c379a000000000000000000000000000000000000000000000000000000000815260040161084d90613ca7565b60405180910390fd5b80601260006101000a81548173ffffffffffffffffffffffffffffffffffffffff021916908373ffffffffffffffffffffffffffffffffffffffff16021790555050565b600047905090565b60115481565b600a81565b60055481565b600d5481565b6108c161226e565b73ffffffffffffffffffffffffffffffffffffffff166108df61154c565b73ffffffffffffffffffffffffffffffffffffffff1614610935576040517f08c379a000000000000000000000000000000000000000000000000000000000815260040161092c90613dc7565b60405180910390fd5b6002600154141561097b576040517f08c379a000000000000000000000000000000000000000000000000000000000815260040161097290613e67565b60405180910390fd5b600260018190555061098e600e54612276565b600e54600d60008282546109a29190614141565b925050819055507f925435fa7e37e5d9555bb18ce0d62bb9627d0846942e58e5291e9a2dded462ed600e54600d546040516109de929190613f81565b60405180910390a16000600e8190555060018081905550565b6109ff61226e565b73ffffffffffffffffffffffffffffffffffffffff16610a1d61154c565b73ffffffffffffffffffffffffffffffffffffffff1614610a73576040517f08c379a0000000000000000000000000000000000000000000000000000000008152600401610a6a90613dc7565b60405180910390fd5b60026001541415610ab9576040517f08c379a0000000000000000000000000000000000000000000000000000000008152600401610ab090613e67565b60405180910390fd5b60026001819055506000600360009054906101000a900473ffffffffffffffffffffffffffffffffffffffff1673ffffffffffffffffffffffffffffffffffffffff1663b213ed186040518163ffffffff1660e01b815260040160a060405180830381600087803b158015610b2d57600080fd5b505af1158015610b41573d6000803e3d6000fd5b505050506040513d601f19601f82011682018060405250810190610b65919061329c565b9050600080600360009054906101000a900473ffffffffffffffffffffffffffffffffffffffff1673ffffffffffffffffffffffffffffffffffffffff16600d5484604051602401610bb8929190613ee2565b6040516020818303038152906040527f230b5e90000000000000000000000000000000000000000000000000000000007bffffffffffffffffffffffffffffffffffffffffffffffffffffffff19166020820180517bffffffffffffffffffffffffffffffffffffffffffffffffffffffff8381831617835250505050604051610c429190613a87565b600060405180830381855af49150503d8060008114610c7d576040519150601f19603f3d011682016040523d82523d6000602084013e610c82565b606091505b509150915081610cc7576040517f08c379a0000000000000000000000000000000000000000000000000000000008152600401610cbe90613da7565b60405180910390fd5b600081806020019051810190610cdd9190613383565b905080600f6000828254610cf19190614141565b9250508190555060105460116000828254610d0c9190614141565b92505081905550600f5460106000828254610d279190614141565b9250508190555043600c819055507f430648de173157e069201c943adb2d4e340e7cf5b27b1b09c9cb852f03d63b5681604051610d649190613ec7565b60405180910390a15050505060018081905550565b60065481565b610d8761226e565b73ffffffffffffffffffffffffffffffffffffffff16610da561154c565b73ffffffffffffffffffffffffffffffffffffffff1614610dfb576040517f08c379a0000000000000000000000000000000000000000000000000000000008152600401610df290613dc7565b60405180910390fd5b60008110158015610e0d575060648111155b610e4c576040517f08c379a0000000000000000000000000000000000000000000000000000000008152600401610e4390613d47565b60405180910390fd5b8060068190555050565b600454600260009054906101000a900473ffffffffffffffffffffffffffffffffffffffff1673ffffffffffffffffffffffffffffffffffffffff166318160ddd6040518163ffffffff1660e01b815260040160206040518083038186803b158015610ec157600080fd5b505afa158015610ed5573d6000803e3d6000fd5b505050506040513d601f19601f82011682018060405250810190610ef99190613383565b10610f39576040517f08c379a0000000000000000000000000000000000000000000000000000000008152600401610f3090613e87565b60405180910390fd5b600080610f458261260d565b90505b600981604051610f589190613a9e565b908152602001604051809103902060009054906101000a900460ff1615610f9857600182610f869190614141565b9150610f918261260d565b9050610f48565b80600860003373ffffffffffffffffffffffffffffffffffffffff1673ffffffffffffffffffffffffffffffffffffffff1681526020019081526020016000209080519060200190610feb929190612fea565b503373ffffffffffffffffffffffffffffffffffffffff167f28bb9b46bad59470dc97d59462efa1e9668696b018146f219ccf4daef2d151a0826040516110329190613c55565b60405180910390a25050565b61104661226e565b73ffffffffffffffffffffffffffffffffffffffff1661106461154c565b73ffffffffffffffffffffffffffffffffffffffff16146110ba576040517f08c379a00000000000000000000000000000000000000000000000000000000081526004016110b190613dc7565b60405180910390fd5b600260009054906101000a900473ffffffffffffffffffffffffffffffffffffffff1673ffffffffffffffffffffffffffffffffffffffff166318160ddd6040518163ffffffff1660e01b815260040160206040518083038186803b15801561112257600080fd5b505afa158015611136573d6000803e3d6000fd5b505050506040513d601f19601f8201168201806040525081019061115a9190613383565b81101561119c576040517f08c379a000000000000000000000000000000000000000000000000000000000815260040161119390613ea7565b60405180910390fd5b8060048190555050565b6111ae61226e565b73ffffffffffffffffffffffffffffffffffffffff166111cc61154c565b73ffffffffffffffffffffffffffffffffffffffff1614611222576040517f08c379a000000000000000000000000000000000000000000000000000000000815260040161121990613dc7565b60405180910390fd5b600073ffffffffffffffffffffffffffffffffffffffff1660008054906101000a900473ffffffffffffffffffffffffffffffffffffffff1673ffffffffffffffffffffffffffffffffffffffff167f8be0079c531659141344cd1fd0a4f28419497f9722a3daafe3b4186f6b6457e060405160405180910390a360008060006101000a81548173ffffffffffffffffffffffffffffffffffffffff021916908373ffffffffffffffffffffffffffffffffffffffff160217905550565b6000806000806000600554600454600260009054906101000a900473ffffffffffffffffffffffffffffffffffffffff1673ffffffffffffffffffffffffffffffffffffffff166318160ddd6040518163ffffffff1660e01b815260040160206040518083038186803b15801561135657600080fd5b505afa15801561136a573d6000803e3d6000fd5b505050506040513d601f19601f8201168201806040525081019061138e9190613383565b600d54600f54945094509450945094509091929394565b61012c81565b600f5481565b6113b961226e565b73ffffffffffffffffffffffffffffffffffffffff166113d761154c565b73ffffffffffffffffffffffffffffffffffffffff161461142d576040517f08c379a000000000000000000000000000000000000000000000000000000000815260040161142490613dc7565b60405180910390fd5b8060058190555050565b600260009054906101000a900473ffffffffffffffffffffffffffffffffffffffff1673ffffffffffffffffffffffffffffffffffffffff163373ffffffffffffffffffffffffffffffffffffffff16146114c7576040517f08c379a00000000000000000000000000000000000000000000000000000000081526004016114be90613d87565b60405180910390fd5b600073ffffffffffffffffffffffffffffffffffffffff168373ffffffffffffffffffffffffffffffffffffffff16146115475760008061150885846126c2565b9150915060006040518060a0016040528085815260200184815260200184815260200143815260200183151581525090506115438582612971565b5050505b505050565b60008060009054906101000a900473ffffffffffffffffffffffffffffffffffffffff16905090565b600b5481565b600c5481565b600a6020528060005260406000206000915090508060000154908060010154908060020154908060030154908060040160009054906101000a900460ff16905085565b6103e881565b601260009054906101000a900473ffffffffffffffffffffffffffffffffffffffff1681565b60026001541415611636576040517f08c379a000000000000000000000000000000000000000000000000000000000815260040161162d90613e67565b60405180910390fd5b60026001819055506000600a60003373ffffffffffffffffffffffffffffffffffffffff1673ffffffffffffffffffffffffffffffffffffffff1681526020019081526020016000209050600c548160030154106116c9576040517f08c379a00000000000000000000000000000000000000000000000000000000081526004016116c090613e27565b60405180910390fd5b6000816002015411611710576040517f08c379a000000000000000000000000000000000000000000000000000000000815260040161170790613d27565b60405180910390fd5b600061171b33611f67565b905060008111611760576040517f08c379a000000000000000000000000000000000000000000000000000000000815260040161175790613e47565b60405180910390fd5b438260030181905550806010600082825461177b9190614222565b9250508190555060003373ffffffffffffffffffffffffffffffffffffffff16826040516117a890613afb565b60006040518083038185875af1925050503d80600081146117e5576040519150601f19603f3d011682016040523d82523d6000602084013e6117ea565b606091505b505090508061182e576040517f08c379a000000000000000000000000000000000000000000000000000000000815260040161182590613d07565b60405180910390fd5b61183733612b19565b50505060018081905550565b6007818154811061185357600080fd5b906000526020600020016000915090505481565b600e5481565b60045481565b61187b61226e565b73ffffffffffffffffffffffffffffffffffffffff1661189961154c565b73ffffffffffffffffffffffffffffffffffffffff16146118ef576040517f08c379a00000000000000000000000000000000000000000000000000000000081526004016118e690613dc7565b60405180910390fd5b60026001541415611935576040517f08c379a000000000000000000000000000000000000000000000000000000000815260040161192c90613e67565b60405180910390fd5b6002600181905550600060115411611982576040517f08c379a000000000000000000000000000000000000000000000000000000000815260040161197990613ce7565b60405180910390fd5b60006011549050600060118190555080601360008282546119a39190614141565b925050819055506000601260009054906101000a900473ffffffffffffffffffffffffffffffffffffffff1673ffffffffffffffffffffffffffffffffffffffff16826040516119f290613afb565b60006040518083038185875af1925050503d8060008114611a2f576040519150601f19603f3d011682016040523d82523d6000602084013e611a34565b606091505b5050905080611a78576040517f08c379a0000000000000000000000000000000000000000000000000000000008152600401611a6f90613d07565b60405180910390fd5b7ff80dbcfd0fb2d20a424f2503e4e99f3bc964d89e8302d36521aedea19ed5e95d82604051611aa79190613ec7565b60405180910390a1505060018081905550565b60105481565b60135481565b60026001541415611b0c576040517f08c379a0000000000000000000000000000000000000000000000000000000008152600401611b0390613e67565b60405180910390fd5b60026001819055506005543414611b58576040517f08c379a0000000000000000000000000000000000000000000000000000000008152600401611b4f90613d67565b60405180910390fd5b600454600260009054906101000a900473ffffffffffffffffffffffffffffffffffffffff1673ffffffffffffffffffffffffffffffffffffffff166318160ddd6040518163ffffffff1660e01b815260040160206040518083038186803b158015611bc357600080fd5b505afa158015611bd7573d6000803e3d6000fd5b505050506040513d601f19601f82011682018060405250810190611bfb9190613383565b10611c3b576040517f08c379a0000000000000000000000000000000000000000000000000000000008152600401611c3290613e87565b60405180910390fd5b6000600860003373ffffffffffffffffffffffffffffffffffffffff1673ffffffffffffffffffffffffffffffffffffffff1681526020019081526020016000208054611c87906142e0565b80601f0160208091040260200160405190810160405280929190818152602001828054611cb3906142e0565b8015611d005780601f10611cd557610100808354040283529160200191611d00565b820191906000526020600020905b815481529060010190602001808311611ce357829003601f168201915b505050505090506000815111611d4b576040517f08c379a0000000000000000000000000000000000000000000000000000000008152600401611d4290613de7565b60405180910390fd5b600080611d56612c34565b915091506000600260009054906101000a900473ffffffffffffffffffffffffffffffffffffffff1673ffffffffffffffffffffffffffffffffffffffff16631b1ecbc53386898988886040518763ffffffff1660e01b8152600401611dc196959493929190613bb6565b602060405180830381600087803b158015611ddb57600080fd5b505af1158015611def573d6000803e3d6000fd5b505050506040513d601f19601f82011682018060405250810190611e139190613383565b905060006040518060a001604052808381526020018481526020018481526020014381526020018515158152509050611e4c3382612971565b60405180602001604052806000815250600860003373ffffffffffffffffffffffffffffffffffffffff1673ffffffffffffffffffffffffffffffffffffffff1681526020019081526020016000209080519060200190611eae929190612fea565b506001600986604051611ec19190613a9e565b908152602001604051809103902060006101000a81548160ff02191690831515021790555034600e6000828254611ef89190614141565b925050819055503373ffffffffffffffffffffffffffffffffffffffff167f43de79bf410fc7b6846221fa9912e72b62d0d7e1e27fc31a6d8c568ec22859a0838989898989604051611f4f96959493929190613f0b565b60405180910390a25050505050600180819055505050565b600080600a60008473ffffffffffffffffffffffffffffffffffffffff1673ffffffffffffffffffffffffffffffffffffffff16815260200190815260200160002060040160009054906101000a900460ff16801561200857506000600a60008573ffffffffffffffffffffffffffffffffffffffff1673ffffffffffffffffffffffffffffffffffffffff16815260200190815260200160002060020154115b80156120575750600c54600a60008573ffffffffffffffffffffffffffffffffffffffff1673ffffffffffffffffffffffffffffffffffffffff16815260200190815260200160002060030154105b156120bc57600b54600a60008573ffffffffffffffffffffffffffffffffffffffff1673ffffffffffffffffffffffffffffffffffffffff16815260200190815260200160002060020154600f546120af91906141c8565b6120b99190614197565b90505b80915050919050565b6120cd61226e565b73ffffffffffffffffffffffffffffffffffffffff166120eb61154c565b73ffffffffffffffffffffffffffffffffffffffff1614612141576040517f08c379a000000000000000000000000000000000000000000000000000000000815260040161213890613dc7565b60405180910390fd5b600073ffffffffffffffffffffffffffffffffffffffff168173ffffffffffffffffffffffffffffffffffffffff1614156121b1576040517f08c379a00000000000000000000000000000000000000000000000000000000081526004016121a890613cc7565b60405180910390fd5b8073ffffffffffffffffffffffffffffffffffffffff1660008054906101000a900473ffffffffffffffffffffffffffffffffffffffff1673ffffffffffffffffffffffffffffffffffffffff167f8be0079c531659141344cd1fd0a4f28419497f9722a3daafe3b4186f6b6457e060405160405180910390a3806000806101000a81548173ffffffffffffffffffffffffffffffffffffffff021916908373ffffffffffffffffffffffffffffffffffffffff16021790555050565b600033905090565b600080600360009054906101000a900473ffffffffffffffffffffffffffffffffffffffff1673ffffffffffffffffffffffffffffffffffffffff1663a13be8776040518163ffffffff1660e01b81526004016040805180830381600087803b1580156122e257600080fd5b505af11580156122f6573d6000803e3d6000fd5b505050506040513d601f19601f8201168201806040525081019061231a9190613211565b91509150600073ffffffffffffffffffffffffffffffffffffffff168173ffffffffffffffffffffffffffffffffffffffff1614612401578173ffffffffffffffffffffffffffffffffffffffff1663095ea7b3827fffffffffffffffffffffffffffffffffffffffffffffffffffffffffffffffff6040518363ffffffff1660e01b81526004016123ad929190613c2c565b602060405180830381600087803b1580156123c757600080fd5b505af11580156123db573d6000803e3d6000fd5b505050506040513d601f19601f820116820180604052508101906123ff91906132c5565b505b6000600360009054906101000a900473ffffffffffffffffffffffffffffffffffffffff1673ffffffffffffffffffffffffffffffffffffffff1663b213ed186040518163ffffffff1660e01b815260040160a060405180830381600087803b15801561246d57600080fd5b505af1158015612481573d6000803e3d6000fd5b505050506040513d601f19601f820116820180604052508101906124a5919061329c565b9050600080600360009054906101000a900473ffffffffffffffffffffffffffffffffffffffff1673ffffffffffffffffffffffffffffffffffffffff1686846040516024016124f6929190613ee2565b6040516020818303038152906040527f391179b3000000000000000000000000000000000000000000000000000000007bffffffffffffffffffffffffffffffffffffffffffffffffffffffff19166020820180517bffffffffffffffffffffffffffffffffffffffffffffffffffffffff83818316178352505050506040516125809190613a87565b600060405180830381855af49150503d80600081146125bb576040519150601f19603f3d011682016040523d82523d6000602084013e6125c0565b606091505b509150915081612605576040517f08c379a00000000000000000000000000000000000000000000000000000000081526004016125fc90613e07565b60405180910390fd5b505050505050565b60608060005b6007805490508110156126b85760006126706007838154811061265f577f4e487b7100000000000000000000000000000000000000000000000000000000600052603260045260246000fd5b906000526020600020015486612ce9565b9050600061267d82612d2e565b90508381604051602001612692929190613ab5565b6040516020818303038152906040529350505080806126b090614312565b915050612613565b5080915050919050565b6000806000600a60008673ffffffffffffffffffffffffffffffffffffffff1673ffffffffffffffffffffffffffffffffffffffff16815260200190815260200160002090506000806000805b846005018054905081101561295f578785600501828154811061275b577f4e487b7100000000000000000000000000000000000000000000000000000000600052603260045260246000fd5b90600052602060002090600502016000015414156128f2578460050181815481106127af577f4e487b7100000000000000000000000000000000000000000000000000000000600052603260045260246000fd5b90600052602060002090600502016001015492508460050181815481106127ff577f4e487b7100000000000000000000000000000000000000000000000000000000600052603260045260246000fd5b906000526020600020906005020160020154935084600501818154811061284f577f4e487b7100000000000000000000000000000000000000000000000000000000600052603260045260246000fd5b906000526020600020906005020160040160009054906101000a900460ff1691508460050181815481106128ac577f4e487b7100000000000000000000000000000000000000000000000000000000600052603260045260246000fd5b90600052602060002090600502016000808201600090556001820160009055600282016000905560038201600090556004820160006101000a81549060ff021916905550505b838560020160008282546129069190614222565b9250508190555060018560000160008282546129229190614222565b92505081905550811561294c5760018560010160008282546129449190614222565b925050819055505b808061295790614312565b91505061270f565b50818195509550505050509250929050565b6000600a60008473ffffffffffffffffffffffffffffffffffffffff1673ffffffffffffffffffffffffffffffffffffffff168152602001908152602001600020905060018160040160006101000a81548160ff02191690831515021790555043816003018190555081604001518160020160008282546129f29190614141565b92505081905550806005018290806001815401808255809150506001900390600052602060002090600502016000909190919091506000820151816000015560208201518160010155604082015181600201556060820151816003015560808201518160040160006101000a81548160ff02191690831515021790555050506001816000016000828254612a869190614141565b92505081905550612ad06040518060400160405280600381526020017f696e6300000000000000000000000000000000000000000000000000000000008152508260000154612d78565b8160400151600b6000828254612ae69190614141565b92505081905550816080015115612b14576001816001016000828254612b0c9190614141565b925050819055505b505050565b6000600a60008373ffffffffffffffffffffffffffffffffffffffff1673ffffffffffffffffffffffffffffffffffffffff1681526020019081526020016000209050600080600090505b8260050180549050811015612bfa57600a836005018281548110612bb1577f4e487b7100000000000000000000000000000000000000000000000000000000600052603260045260246000fd5b90600052602060002090600502016002016000828254612bd19190614141565b92505081905550600a82612be59190614141565b91508080612bf290614312565b915050612b64565b5080826002016000828254612c0f9190614141565b9250508190555080600b6000828254612c289190614141565b92505081905550505050565b60008060006064444243604051602001612c5093929190613b10565b6040516020818303038152906040528051906020012060001c612c739190614365565b90506000600654821115905060008115612cdc5760018061012c612c979190614222565b444243604051602001612cac93929190613b10565b6040516020818303038152906040528051906020012060001c612ccf9190614365565b612cd99190614141565b90505b8181945094505050509091565b60008244424385604051602001612d039493929190613b4d565b6040516020818303038152906040528051906020012060001c612d269190614365565b905092915050565b6060600a8210612d4857612d4182612e14565b9050612d73565b612d5182612e14565b604051602001612d619190613ad9565b60405160208183030381529060405290505b919050565b612e108282604051602401612d8e929190613c77565b6040516020818303038152906040527f9710a9d0000000000000000000000000000000000000000000000000000000007bffffffffffffffffffffffffffffffffffffffffffffffffffffffff19166020820180517bffffffffffffffffffffffffffffffffffffffffffffffffffffffff8381831617835250505050612fc1565b5050565b60606000821415612e5c576040518060400160405280600181526020017f30000000000000000000000000000000000000000000000000000000000000008152509050612fbc565b600082905060005b60008214612e8e578080612e7790614312565b915050600a82612e879190614197565b9150612e64565b60008167ffffffffffffffff811115612ed0577f4e487b7100000000000000000000000000000000000000000000000000000000600052604160045260246000fd5b6040519080825280601f01601f191660200182016040528015612f025781602001600182028036833780820191505090505b5090505b60008514612fb557600182612f1b9190614222565b9150600a85612f2a9190614365565b6030612f369190614141565b60f81b818381518110612f72577f4e487b7100000000000000000000000000000000000000000000000000000000600052603260045260246000fd5b60200101907effffffffffffffffffffffffffffffffffffffffffffffffffffffffffffff1916908160001a905350600a85612fae9190614197565b9450612f06565b8093505050505b919050565b60008151905060006a636f6e736f6c652e6c6f679050602083016000808483855afa5050505050565b828054612ff6906142e0565b90600052602060002090601f016020900481019282613018576000855561305f565b82601f1061303157805160ff191683800117855561305f565b8280016001018555821561305f579182015b8281111561305e578251825591602001919060010190613043565b5b50905061306c9190613070565b5090565b5b80821115613089576000816000905550600101613071565b5090565b60006130a061309b84614081565b614050565b905080828560208602820111156130b657600080fd5b60005b858110156130e657816130cc8882613143565b8452602084019350602083019250506001810190506130b9565b5050509392505050565b60006131036130fe846140a7565b614050565b90508281526020810184848401111561311b57600080fd5b61312684828561429e565b509392505050565b60008135905061313d81614463565b92915050565b60008151905061315281614463565b92915050565b600082601f83011261316957600080fd5b600561317684828561308d565b91505092915050565b60008151905061318e8161447a565b92915050565b600082601f8301126131a557600080fd5b81356131b58482602086016130f0565b91505092915050565b6000813590506131cd81614491565b92915050565b6000815190506131e281614491565b92915050565b6000602082840312156131fa57600080fd5b60006132088482850161312e565b91505092915050565b6000806040838503121561322457600080fd5b600061323285828601613143565b925050602061324385828601613143565b9150509250929050565b60008060006060848603121561326257600080fd5b60006132708682870161312e565b93505060206132818682870161312e565b9250506040613292868287016131be565b9150509250925092565b600060a082840312156132ae57600080fd5b60006132bc84828501613158565b91505092915050565b6000602082840312156132d757600080fd5b60006132e58482850161317f565b91505092915050565b6000806040838503121561330157600080fd5b600083013567ffffffffffffffff81111561331b57600080fd5b61332785828601613194565b925050602083013567ffffffffffffffff81111561334457600080fd5b61335085828601613194565b9150509250929050565b60006020828403121561336c57600080fd5b600061337a848285016131be565b91505092915050565b60006020828403121561339557600080fd5b60006133a3848285016131d3565b91505092915050565b60006133b883836133c4565b60208301905092915050565b6133cd81614256565b82525050565b6133dc81614256565b82525050565b6133eb816140e1565b6133f5818461410f565b9250613400826140d7565b8060005b8381101561343157815161341887826133ac565b965061342383614102565b925050600181019050613404565b505050505050565b61344281614268565b82525050565b6000613453826140ec565b61345d818561411a565b935061346d8185602086016142ad565b80840191505092915050565b6000613484826140f7565b61348e8185614125565b935061349e8185602086016142ad565b6134a781614452565b840191505092915050565b60006134bd826140f7565b6134c78185614136565b93506134d78185602086016142ad565b80840191505092915050565b60006134f0600183614136565b91507f30000000000000000000000000000000000000000000000000000000000000006000830152600182019050919050565b6000613530601483614125565b91507f4164647265737320697320696e636f72726563740000000000000000000000006000830152602082019050919050565b6000613570602683614125565b91507f4f776e61626c653a206e6577206f776e657220697320746865207a65726f206160008301527f64647265737300000000000000000000000000000000000000000000000000006020830152604082019050919050565b60006135d6602583614125565b91507f4e6f7420656e6f75676820756e636c61696d6564207969656c6420746f20626560008301527f2073656e740000000000000000000000000000000000000000000000000000006020830152604082019050919050565b600061363c601483614125565b91507f5472616e736665722066656573206661696c65640000000000000000000000006000830152602082019050919050565b600061367c601f83614125565b91507f4e6f7420656e6f756768204e46542077656967687420746f2072656465656d006000830152602082019050919050565b60006136bc602583614125565b91507f50726f626162696c6974792073686f756c64206265206265747765656e20302060008301527f2d203130300000000000000000000000000000000000000000000000000000006020830152604082019050919050565b6000613722601483614125565b91507f5072696365206973206e6f7420636f72726563740000000000000000000000006000830152602082019050919050565b6000613762601e83614125565b91507f43616c6c6572206973206e6f7420746865204e465420636f6e747261637400006000830152602082019050919050565b60006137a2601783614125565b91507f5374616b696e67207769746864726177206661696c65640000000000000000006000830152602082019050919050565b60006137e2602083614125565b91507f4f776e61626c653a2063616c6c6572206973206e6f7420746865206f776e65726000830152602082019050919050565b6000613822602b83614125565b91507f53686f756c642067656e657261746520612072616e646f6d20444e412062656660008301527f6f7265206d696e74696e670000000000000000000000000000000000000000006020830152604082019050919050565b6000613888601683614125565b91507f5374616b696e67206465706f736974206661696c6564000000000000000000006000830152602082019050919050565b60006138c8601683614125565b91507f5969656c6420616c72656164792072656465656d6564000000000000000000006000830152602082019050919050565b600061390860008361411a565b9150600082019050919050565b6000613922602283614125565b91507f596f7520646f206e6f74206861766520616e797468696e6720746f207265646560008301527f656d0000000000000000000000000000000000000000000000000000000000006020830152604082019050919050565b6000613988601f83614125565b91507f5265656e7472616e637947756172643a207265656e7472616e742063616c6c006000830152602082019050919050565b60006139c8601b83614125565b91507f4d617820737570706c7920686173206265656e207265616368656400000000006000830152602082019050919050565b6000613a08602d83614125565b91507f4d617820737570706c792063616e6e6f74206265206c657373207468616e206360008301527f757272656e7420737570706c79000000000000000000000000000000000000006020830152604082019050919050565b613a6a81614294565b82525050565b613a81613a7c82614294565b61435b565b82525050565b6000613a938284613448565b915081905092915050565b6000613aaa82846134b2565b915081905092915050565b6000613ac182856134b2565b9150613acd82846134b2565b91508190509392505050565b6000613ae4826134e3565b9150613af082846134b2565b915081905092915050565b6000613b06826138fb565b9150819050919050565b6000613b1c8286613a70565b602082019150613b2c8285613a70565b602082019150613b3c8284613a70565b602082019150819050949350505050565b6000613b598287613a70565b602082019150613b698286613a70565b602082019150613b798285613a70565b602082019150613b898284613a70565b60208201915081905095945050505050565b6000602082019050613bb060008301846133d3565b92915050565b600060c082019050613bcb60008301896133d3565b8181036020830152613bdd8188613479565b90508181036040830152613bf18187613479565b90508181036060830152613c058186613479565b9050613c146080830185613439565b613c2160a0830184613a61565b979650505050505050565b6000604082019050613c4160008301856133d3565b613c4e6020830184613a61565b9392505050565b60006020820190508181036000830152613c6f8184613479565b905092915050565b60006040820190508181036000830152613c918185613479565b9050613ca06020830184613a61565b9392505050565b60006020820190508181036000830152613cc081613523565b9050919050565b60006020820190508181036000830152613ce081613563565b9050919050565b60006020820190508181036000830152613d00816135c9565b9050919050565b60006020820190508181036000830152613d208161362f565b9050919050565b60006020820190508181036000830152613d408161366f565b9050919050565b60006020820190508181036000830152613d60816136af565b9050919050565b60006020820190508181036000830152613d8081613715565b9050919050565b60006020820190508181036000830152613da081613755565b9050919050565b60006020820190508181036000830152613dc081613795565b9050919050565b60006020820190508181036000830152613de0816137d5565b9050919050565b60006020820190508181036000830152613e0081613815565b9050919050565b60006020820190508181036000830152613e208161387b565b9050919050565b60006020820190508181036000830152613e40816138bb565b9050919050565b60006020820190508181036000830152613e6081613915565b9050919050565b60006020820190508181036000830152613e808161397b565b9050919050565b60006020820190508181036000830152613ea0816139bb565b9050919050565b60006020820190508181036000830152613ec0816139fb565b9050919050565b6000602082019050613edc6000830184613a61565b92915050565b600060c082019050613ef76000830185613a61565b613f0460208301846133e2565b9392505050565b600060c082019050613f206000830189613a61565b8181036020830152613f328188613479565b90508181036040830152613f468187613479565b90508181036060830152613f5a8186613479565b9050613f696080830185613439565b613f7660a0830184613a61565b979650505050505050565b6000604082019050613f966000830185613a61565b613fa36020830184613a61565b9392505050565b600060a082019050613fbf6000830188613a61565b613fcc6020830187613a61565b613fd96040830186613a61565b613fe66060830185613a61565b613ff36080830184613439565b9695505050505050565b600060a0820190506140126000830188613a61565b61401f6020830187613a61565b61402c6040830186613a61565b6140396060830185613a61565b6140466080830184613a61565b9695505050505050565b6000604051905081810181811067ffffffffffffffff8211171561407757614076614423565b5b8060405250919050565b600067ffffffffffffffff82111561409c5761409b614423565b5b602082029050919050565b600067ffffffffffffffff8211156140c2576140c1614423565b5b601f19601f8301169050602081019050919050565b6000819050919050565b600060059050919050565b600081519050919050565b600081519050919050565b6000602082019050919050565b600081905092915050565b600081905092915050565b600082825260208201905092915050565b600081905092915050565b600061414c82614294565b915061415783614294565b9250827fffffffffffffffffffffffffffffffffffffffffffffffffffffffffffffffff0382111561418c5761418b614396565b5b828201905092915050565b60006141a282614294565b91506141ad83614294565b9250826141bd576141bc6143c5565b5b828204905092915050565b60006141d382614294565b91506141de83614294565b9250817fffffffffffffffffffffffffffffffffffffffffffffffffffffffffffffffff048311821515161561421757614216614396565b5b828202905092915050565b600061422d82614294565b915061423883614294565b92508282101561424b5761424a614396565b5b828203905092915050565b600061426182614274565b9050919050565b60008115159050919050565b600073ffffffffffffffffffffffffffffffffffffffff82169050919050565b6000819050919050565b82818337600083830152505050565b60005b838110156142cb5780820151818401526020810190506142b0565b838111156142da576000848401525b50505050565b600060028204905060018216806142f857607f821691505b6020821081141561430c5761430b6143f4565b5b50919050565b600061431d82614294565b91507fffffffffffffffffffffffffffffffffffffffffffffffffffffffffffffffff8214156143505761434f614396565b5b600182019050919050565b6000819050919050565b600061437082614294565b915061437b83614294565b92508261438b5761438a6143c5565b5b828206905092915050565b7f4e487b7100000000000000000000000000000000000000000000000000000000600052601160045260246000fd5b7f4e487b7100000000000000000000000000000000000000000000000000000000600052601260045260246000fd5b7f4e487b7100000000000000000000000000000000000000000000000000000000600052602260045260246000fd5b7f4e487b7100000000000000000000000000000000000000000000000000000000600052604160045260246000fd5b6000601f19601f8301169050919050565b61446c81614256565b811461447757600080fd5b50565b61448381614268565b811461448e57600080fd5b50565b61449a81614294565b81146144a557600080fd5b5056fea2646970667358221220a009191012936c0414d36eac2915a04454a4d2cba5fde50d6638d3e56dd2a7cc64736f6c63430008000033",
  "linkReferences": {},
  "deployedLinkReferences": {}
}