{
  "_format": "hh-sol-artifact-1",
  "contractName": "PlasmidsFactory",
  "sourceName": "contracts/PlasmidsFactory.sol",
  "abi": [
    {
      "inputs": [
        {
          "internalType": "address",
          "name": "_nftAddress",
          "type": "address"
        },
        {
          "internalType": "uint256",
          "name": "_maxSupply",
          "type": "uint256"
        },
        {
          "internalType": "uint256",
          "name": "_mintingPrice",
          "type": "uint256"
        },
        {
          "internalType": "address",
          "name": "_stakingAdapterAddress",
          "type": "address"
        },
        {
          "internalType": "address",
          "name": "_charityAddress",
          "type": "address"
        }
      ],
      "stateMutability": "nonpayable",
      "type": "constructor"
    },
    {
      "anonymous": false,
      "inputs": [
        {
          "indexed": true,
          "internalType": "address",
          "name": "sender",
          "type": "address"
        },
        {
          "indexed": false,
          "internalType": "string",
          "name": "dna",
          "type": "string"
        }
      ],
      "name": "DnaGenerated",
      "type": "event"
    },
    {
      "anonymous": false,
      "inputs": [
        {
          "indexed": false,
          "internalType": "uint256",
          "name": "newId",
          "type": "uint256"
        },
        {
          "indexed": true,
          "internalType": "address",
          "name": "owner",
          "type": "address"
        },
        {
          "indexed": false,
          "internalType": "string",
          "name": "imageURI",
          "type": "string"
        },
        {
          "indexed": false,
          "internalType": "string",
          "name": "metadataURI",
          "type": "string"
        },
        {
          "indexed": false,
          "internalType": "string",
          "name": "dna",
          "type": "string"
        },
        {
          "indexed": false,
          "internalType": "bool",
          "name": "isSpecial",
          "type": "bool"
        },
        {
          "indexed": false,
          "internalType": "uint256",
          "name": "weight",
          "type": "uint256"
        }
      ],
      "name": "Minted",
      "type": "event"
    },
    {
      "anonymous": false,
      "inputs": [
        {
          "indexed": true,
          "internalType": "address",
          "name": "previousOwner",
          "type": "address"
        },
        {
          "indexed": true,
          "internalType": "address",
          "name": "newOwner",
          "type": "address"
        }
      ],
      "name": "OwnershipTransferred",
      "type": "event"
    },
    {
      "anonymous": false,
      "inputs": [
        {
          "indexed": false,
          "internalType": "uint256",
          "name": "amount",
          "type": "uint256"
        }
      ],
      "name": "SentToCharity",
      "type": "event"
    },
    {
      "anonymous": false,
      "inputs": [
        {
          "indexed": false,
          "internalType": "uint256",
          "name": "pendingStake",
          "type": "uint256"
        },
        {
          "indexed": false,
          "internalType": "uint256",
          "name": "stakedAmount",
          "type": "uint256"
        }
      ],
      "name": "Staked",
      "type": "event"
    },
    {
      "anonymous": false,
      "inputs": [
        {
          "indexed": false,
          "internalType": "uint256",
          "name": "withdrawal",
          "type": "uint256"
        }
      ],
      "name": "Withdrawn",
      "type": "event"
    },
    {
      "inputs": [
        {
          "internalType": "uint256",
          "name": "",
          "type": "uint256"
        }
      ],
      "name": "attributes",
      "outputs": [
        {
          "internalType": "uint256",
          "name": "",
          "type": "uint256"
        }
      ],
      "stateMutability": "view",
      "type": "function"
    },
    {
      "inputs": [
        {
          "internalType": "address",
          "name": "_oldOwner",
          "type": "address"
        },
        {
          "internalType": "address",
          "name": "_newOwner",
          "type": "address"
        },
        {
          "internalType": "uint256",
          "name": "_tokenId",
          "type": "uint256"
        }
      ],
      "name": "changeNFTOwner",
      "outputs": [],
      "stateMutability": "nonpayable",
      "type": "function"
    },
    {
      "inputs": [],
      "name": "charityAddress",
      "outputs": [
        {
          "internalType": "address",
          "name": "",
          "type": "address"
        }
      ],
      "stateMutability": "view",
      "type": "function"
    },
    {
      "inputs": [],
      "name": "currentYield",
      "outputs": [
        {
          "internalType": "uint256",
          "name": "",
          "type": "uint256"
        }
      ],
      "stateMutability": "view",
      "type": "function"
    },
    {
      "inputs": [],
      "name": "getBalance",
      "outputs": [
        {
          "internalType": "uint256",
          "name": "",
          "type": "uint256"
        }
      ],
      "stateMutability": "view",
      "type": "function"
    },
    {
      "inputs": [],
      "name": "getRandomDna",
      "outputs": [],
      "stateMutability": "nonpayable",
      "type": "function"
    },
    {
      "inputs": [],
      "name": "lastWithdrawBlock",
      "outputs": [
        {
          "internalType": "uint256",
          "name": "",
          "type": "uint256"
        }
      ],
      "stateMutability": "view",
      "type": "function"
    },
    {
      "inputs": [],
      "name": "maxInitialWeight",
      "outputs": [
        {
          "internalType": "uint256",
          "name": "",
          "type": "uint256"
        }
      ],
      "stateMutability": "view",
      "type": "function"
    },
    {
      "inputs": [],
      "name": "maxSupply",
      "outputs": [
        {
          "internalType": "uint256",
          "name": "",
          "type": "uint256"
        }
      ],
      "stateMutability": "view",
      "type": "function"
    },
    {
      "inputs": [],
      "name": "maxWeight",
      "outputs": [
        {
          "internalType": "uint256",
          "name": "",
          "type": "uint256"
        }
      ],
      "stateMutability": "view",
      "type": "function"
    },
    {
      "inputs": [
        {
          "internalType": "string",
          "name": "_imageURI",
          "type": "string"
        },
        {
          "internalType": "string",
          "name": "_metadataURI",
          "type": "string"
        }
      ],
      "name": "mintNFT",
      "outputs": [],
      "stateMutability": "payable",
      "type": "function"
    },
    {
      "inputs": [],
      "name": "mintingPrice",
      "outputs": [
        {
          "internalType": "uint256",
          "name": "",
          "type": "uint256"
        }
      ],
      "stateMutability": "view",
      "type": "function"
    },
    {
      "inputs": [],
      "name": "owner",
      "outputs": [
        {
          "internalType": "address",
          "name": "",
          "type": "address"
        }
      ],
      "stateMutability": "view",
      "type": "function"
    },
    {
      "inputs": [],
      "name": "pendingStake",
      "outputs": [
        {
          "internalType": "uint256",
          "name": "",
          "type": "uint256"
        }
      ],
      "stateMutability": "view",
      "type": "function"
    },
    {
      "inputs": [
        {
          "internalType": "address",
          "name": "_addr",
          "type": "address"
        }
      ],
      "name": "pendingToRedeem",
      "outputs": [
        {
          "internalType": "uint256",
          "name": "",
          "type": "uint256"
        }
      ],
      "stateMutability": "view",
      "type": "function"
    },
    {
      "inputs": [],
      "name": "pendingYield",
      "outputs": [
        {
          "internalType": "uint256",
          "name": "",
          "type": "uint256"
        }
      ],
      "stateMutability": "view",
      "type": "function"
    },
    {
      "inputs": [],
      "name": "redeem",
      "outputs": [],
      "stateMutability": "nonpayable",
      "type": "function"
    },
    {
      "inputs": [],
      "name": "renounceOwnership",
      "outputs": [],
      "stateMutability": "nonpayable",
      "type": "function"
    },
    {
      "inputs": [],
      "name": "sendToCharity",
      "outputs": [],
      "stateMutability": "nonpayable",
      "type": "function"
    },
    {
      "inputs": [
        {
          "internalType": "uint256",
          "name": "_maxSupply",
          "type": "uint256"
        }
      ],
      "name": "setMaxSupply",
      "outputs": [],
      "stateMutability": "nonpayable",
      "type": "function"
    },
    {
      "inputs": [
        {
          "internalType": "uint256",
          "name": "_mintingPrice",
          "type": "uint256"
        }
      ],
      "name": "setMintingPrice",
      "outputs": [],
      "stateMutability": "nonpayable",
      "type": "function"
    },
    {
      "inputs": [
        {
          "internalType": "uint256",
          "name": "_specialProbability",
          "type": "uint256"
        }
      ],
      "name": "setSpecialProbability",
      "outputs": [],
      "stateMutability": "nonpayable",
      "type": "function"
    },
    {
      "inputs": [],
      "name": "specialProbability",
      "outputs": [
        {
          "internalType": "uint256",
          "name": "",
          "type": "uint256"
        }
      ],
      "stateMutability": "view",
      "type": "function"
    },
    {
      "inputs": [],
      "name": "stake",
      "outputs": [],
      "stateMutability": "nonpayable",
      "type": "function"
    },
    {
      "inputs": [],
      "name": "stakedAmount",
      "outputs": [
        {
          "internalType": "uint256",
          "name": "",
          "type": "uint256"
        }
      ],
      "stateMutability": "view",
      "type": "function"
    },
    {
      "inputs": [],
      "name": "totalSentToCharity",
      "outputs": [
        {
          "internalType": "uint256",
          "name": "",
          "type": "uint256"
        }
      ],
      "stateMutability": "view",
      "type": "function"
    },
    {
      "inputs": [],
      "name": "totalWeight",
      "outputs": [
        {
          "internalType": "uint256",
          "name": "",
          "type": "uint256"
        }
      ],
      "stateMutability": "view",
      "type": "function"
    },
    {
      "inputs": [
        {
          "internalType": "address",
          "name": "newOwner",
          "type": "address"
        }
      ],
      "name": "transferOwnership",
      "outputs": [],
      "stateMutability": "nonpayable",
      "type": "function"
    },
    {
      "inputs": [],
      "name": "unclaimedYield",
      "outputs": [
        {
          "internalType": "uint256",
          "name": "",
          "type": "uint256"
        }
      ],
      "stateMutability": "view",
      "type": "function"
    },
    {
      "inputs": [
        {
          "internalType": "address",
          "name": "",
          "type": "address"
        }
      ],
      "name": "users",
      "outputs": [
        {
          "internalType": "uint256",
          "name": "userWeight",
          "type": "uint256"
        },
        {
          "internalType": "uint256",
          "name": "lastRedeemBlock",
          "type": "uint256"
        },
        {
          "internalType": "bool",
          "name": "exists",
          "type": "bool"
        }
      ],
      "stateMutability": "view",
      "type": "function"
    },
    {
      "inputs": [],
      "name": "weightIncrement",
      "outputs": [
        {
          "internalType": "uint256",
          "name": "",
          "type": "uint256"
        }
      ],
      "stateMutability": "view",
      "type": "function"
    },
    {
      "inputs": [],
      "name": "withdraw",
      "outputs": [],
      "stateMutability": "nonpayable",
      "type": "function"
    },
    {
      "stateMutability": "payable",
      "type": "receive"
    }
  ],
  "bytecode": "0x60806040523480156200001157600080fd5b5060405162004274380380620042748339818101604052810190620000379190620002b5565b6000620000496200027f60201b60201c565b9050806000806101000a81548173ffffffffffffffffffffffffffffffffffffffff021916908373ffffffffffffffffffffffffffffffffffffffff1602179055508073ffffffffffffffffffffffffffffffffffffffff16600073ffffffffffffffffffffffffffffffffffffffff167f8be0079c531659141344cd1fd0a4f28419497f9722a3daafe3b4186f6b6457e060405160405180910390a3506001808190555084600260006101000a81548173ffffffffffffffffffffffffffffffffffffffff021916908373ffffffffffffffffffffffffffffffffffffffff16021790555081600360006101000a81548173ffffffffffffffffffffffffffffffffffffffff021916908373ffffffffffffffffffffffffffffffffffffffff1602179055508360048190555082600581905550603260068190555043600c8190555080601260006101000a81548173ffffffffffffffffffffffffffffffffffffffff021916908373ffffffffffffffffffffffffffffffffffffffff160217905550600780806001815401808255809150506001900390600052602060002001600090919091909150556007600590806001815401808255809150506001900390600052602060002001600090919091909150556007600390806001815401808255809150506001900390600052602060002001600090919091909150556007600390806001815401808255809150506001900390600052602060002001600090919091909150555050505050620003a9565b600033905090565b600081519050620002988162000375565b92915050565b600081519050620002af816200038f565b92915050565b600080600080600060a08688031215620002ce57600080fd5b6000620002de8882890162000287565b9550506020620002f1888289016200029e565b945050604062000304888289016200029e565b9350506060620003178882890162000287565b92505060806200032a8882890162000287565b9150509295509295909350565b600062000344826200034b565b9050919050565b600073ffffffffffffffffffffffffffffffffffffffff82169050919050565b6000819050919050565b620003808162000337565b81146200038c57600080fd5b50565b6200039a816200036b565b8114620003a657600080fd5b50565b613ebb80620003b96000396000f3fe6080604052600436106101e75760003560e01c80638da5cb5b11610102578063d4432e4e11610095578063e8bafde711610064578063e8bafde71461064d578063e960554414610678578063ed77c4e314610694578063f2fde38b146106d1576101ee565b8063d4432e4e146105b5578063d5abeb01146105e0578063d7e5d8ac1461060b578063dbb0487314610622576101ee565b8063a8b0bb83116100d1578063a8b0bb831461050b578063afcf2fc414610536578063be040fb014610561578063d05dcc6a14610578576101ee565b80638da5cb5b1461044b57806396c82e57146104765780639e0796d0146104a1578063a87430ba146104cc576101ee565b806356fa666f1161017a5780637874ae2e116101495780637874ae2e146103a357806378a642f2146103ce5780638417b47f146103f9578063844d5c7214610422576101ee565b806356fa666f146103235780636b74b7351461034c5780636f8b44b014610363578063715018a61461038c576101ee565b8063373d6132116101b6578063373d61321461029f5780633a4b66f1146102ca5780633ccfd60b146102e1578063560b346c146102f8576101ee565b806312065fe0146101f35780631c105d631461021e5780632fa20a8e1461024957806335db70b514610274576101ee565b366101ee57005b600080fd5b3480156101ff57600080fd5b506102086106fa565b6040516102159190613913565b60405180910390f35b34801561022a57600080fd5b50610233610702565b6040516102409190613913565b60405180910390f35b34801561025557600080fd5b5061025e610708565b60405161026b9190613913565b60405180910390f35b34801561028057600080fd5b5061028961070d565b6040516102969190613913565b60405180910390f35b3480156102ab57600080fd5b506102b4610713565b6040516102c19190613913565b60405180910390f35b3480156102d657600080fd5b506102df610719565b005b3480156102ed57600080fd5b506102f6610857565b005b34801561030457600080fd5b5061030d610bd9565b60405161031a9190613913565b60405180910390f35b34801561032f57600080fd5b5061034a60048036038101906103459190612e36565b610bdf565b005b34801561035857600080fd5b50610361610cb6565b005b34801561036f57600080fd5b5061038a60048036038101906103859190612e36565b610e9e565b005b34801561039857600080fd5b506103a1611006565b005b3480156103af57600080fd5b506103b8611140565b6040516103c59190613913565b60405180910390f35b3480156103da57600080fd5b506103e3611146565b6040516103f09190613913565b60405180910390f35b34801561040557600080fd5b50610420600480360381019061041b9190612e36565b61114c565b005b34801561042e57600080fd5b5061044960048036038101906104449190612d29565b6111d2565b005b34801561045757600080fd5b506104606112a6565b60405161046d9190613637565b60405180910390f35b34801561048257600080fd5b5061048b6112cf565b6040516104989190613913565b60405180910390f35b3480156104ad57600080fd5b506104b66112d5565b6040516104c39190613913565b60405180910390f35b3480156104d857600080fd5b506104f360048036038101906104ee9190612cc4565b6112db565b604051610502939291906139f6565b60405180910390f35b34801561051757600080fd5b50610520611312565b60405161052d9190613913565b60405180910390f35b34801561054257600080fd5b5061054b611318565b6040516105589190613637565b60405180910390f35b34801561056d57600080fd5b5061057661133e565b005b34801561058457600080fd5b5061059f600480360381019061059a9190612e36565b611591565b6040516105ac9190613913565b60405180910390f35b3480156105c157600080fd5b506105ca6115b5565b6040516105d79190613913565b60405180910390f35b3480156105ec57600080fd5b506105f56115bb565b6040516106029190613913565b60405180910390f35b34801561061757600080fd5b506106206115c1565b005b34801561062e57600080fd5b50610637611808565b6040516106449190613913565b60405180910390f35b34801561065957600080fd5b5061066261180e565b60405161066f9190613913565b60405180910390f35b610692600480360381019061068d9190612dca565b611814565b005b3480156106a057600080fd5b506106bb60048036038101906106b69190612cc4565b611cb4565b6040516106c89190613913565b60405180910390f35b3480156106dd57600080fd5b506106f860048036038101906106f39190612cc4565b611dc4565b005b600047905090565b60115481565b600a81565b60055481565b600d5481565b610721611f6d565b73ffffffffffffffffffffffffffffffffffffffff1661073f6112a6565b73ffffffffffffffffffffffffffffffffffffffff1614610795576040517f08c379a000000000000000000000000000000000000000000000000000000000815260040161078c90613813565b60405180910390fd5b600260015414156107db576040517f08c379a00000000000000000000000000000000000000000000000000000000081526004016107d2906138b3565b60405180910390fd5b60026001819055506107ee600e54611f75565b600e54600d60008282546108029190613b1e565b925050819055507f925435fa7e37e5d9555bb18ce0d62bb9627d0846942e58e5291e9a2dded462ed600e54600d5460405161083e9291906139cd565b60405180910390a16000600e8190555060018081905550565b61085f611f6d565b73ffffffffffffffffffffffffffffffffffffffff1661087d6112a6565b73ffffffffffffffffffffffffffffffffffffffff16146108d3576040517f08c379a00000000000000000000000000000000000000000000000000000000081526004016108ca90613813565b60405180910390fd5b60026001541415610919576040517f08c379a0000000000000000000000000000000000000000000000000000000008152600401610910906138b3565b60405180910390fd5b60026001819055506000600360009054906101000a900473ffffffffffffffffffffffffffffffffffffffff1673ffffffffffffffffffffffffffffffffffffffff1663b213ed186040518163ffffffff1660e01b815260040160a060405180830381600087803b15801561098d57600080fd5b505af11580156109a1573d6000803e3d6000fd5b505050506040513d601f19601f820116820180604052508101906109c59190612d78565b9050600080600360009054906101000a900473ffffffffffffffffffffffffffffffffffffffff1673ffffffffffffffffffffffffffffffffffffffff16600d5484604051602401610a1892919061392e565b6040516020818303038152906040527f230b5e90000000000000000000000000000000000000000000000000000000007bffffffffffffffffffffffffffffffffffffffffffffffffffffffff19166020820180517bffffffffffffffffffffffffffffffffffffffffffffffffffffffff8381831617835250505050604051610aa29190613523565b600060405180830381855af49150503d8060008114610add576040519150601f19603f3d011682016040523d82523d6000602084013e610ae2565b606091505b509150915081610b27576040517f08c379a0000000000000000000000000000000000000000000000000000000008152600401610b1e906137f3565b60405180910390fd5b600081806020019051810190610b3d9190612e5f565b905080600f6000828254610b519190613b1e565b9250508190555060105460116000828254610b6c9190613b1e565b92505081905550600f5460106000828254610b879190613b1e565b9250508190555043600c819055507f430648de173157e069201c943adb2d4e340e7cf5b27b1b09c9cb852f03d63b5681604051610bc49190613913565b60405180910390a15050505060018081905550565b60065481565b610be7611f6d565b73ffffffffffffffffffffffffffffffffffffffff16610c056112a6565b73ffffffffffffffffffffffffffffffffffffffff1614610c5b576040517f08c379a0000000000000000000000000000000000000000000000000000000008152600401610c5290613813565b60405180910390fd5b60008110158015610c6d575060648111155b610cac576040517f08c379a0000000000000000000000000000000000000000000000000000000008152600401610ca390613793565b60405180910390fd5b8060068190555050565b600454600260009054906101000a900473ffffffffffffffffffffffffffffffffffffffff1673ffffffffffffffffffffffffffffffffffffffff166318160ddd6040518163ffffffff1660e01b815260040160206040518083038186803b158015610d2157600080fd5b505afa158015610d35573d6000803e3d6000fd5b505050506040513d601f19601f82011682018060405250810190610d599190612e5f565b10610d99576040517f08c379a0000000000000000000000000000000000000000000000000000000008152600401610d90906138d3565b60405180910390fd5b600080610da58261230c565b90505b600981604051610db8919061353a565b908152602001604051809103902060009054906101000a900460ff1615610df857600182610de69190613b1e565b9150610df18261230c565b9050610da8565b80600860003373ffffffffffffffffffffffffffffffffffffffff1673ffffffffffffffffffffffffffffffffffffffff1681526020019081526020016000209080519060200190610e4b929190612ac6565b503373ffffffffffffffffffffffffffffffffffffffff167f28bb9b46bad59470dc97d59462efa1e9668696b018146f219ccf4daef2d151a082604051610e9291906136f1565b60405180910390a25050565b610ea6611f6d565b73ffffffffffffffffffffffffffffffffffffffff16610ec46112a6565b73ffffffffffffffffffffffffffffffffffffffff1614610f1a576040517f08c379a0000000000000000000000000000000000000000000000000000000008152600401610f1190613813565b60405180910390fd5b600260009054906101000a900473ffffffffffffffffffffffffffffffffffffffff1673ffffffffffffffffffffffffffffffffffffffff166318160ddd6040518163ffffffff1660e01b815260040160206040518083038186803b158015610f8257600080fd5b505afa158015610f96573d6000803e3d6000fd5b505050506040513d601f19601f82011682018060405250810190610fba9190612e5f565b811015610ffc576040517f08c379a0000000000000000000000000000000000000000000000000000000008152600401610ff3906138f3565b60405180910390fd5b8060048190555050565b61100e611f6d565b73ffffffffffffffffffffffffffffffffffffffff1661102c6112a6565b73ffffffffffffffffffffffffffffffffffffffff1614611082576040517f08c379a000000000000000000000000000000000000000000000000000000000815260040161107990613813565b60405180910390fd5b600073ffffffffffffffffffffffffffffffffffffffff1660008054906101000a900473ffffffffffffffffffffffffffffffffffffffff1673ffffffffffffffffffffffffffffffffffffffff167f8be0079c531659141344cd1fd0a4f28419497f9722a3daafe3b4186f6b6457e060405160405180910390a360008060006101000a81548173ffffffffffffffffffffffffffffffffffffffff021916908373ffffffffffffffffffffffffffffffffffffffff160217905550565b61012c81565b600f5481565b611154611f6d565b73ffffffffffffffffffffffffffffffffffffffff166111726112a6565b73ffffffffffffffffffffffffffffffffffffffff16146111c8576040517f08c379a00000000000000000000000000000000000000000000000000000000081526004016111bf90613813565b60405180910390fd5b8060058190555050565b600260009054906101000a900473ffffffffffffffffffffffffffffffffffffffff1673ffffffffffffffffffffffffffffffffffffffff163373ffffffffffffffffffffffffffffffffffffffff1614611262576040517f08c379a0000000000000000000000000000000000000000000000000000000008152600401611259906137d3565b60405180910390fd5b600061126e84836123c1565b90506000604051806080016040528084815260200183815260200183815260200143815250905061129f84826125b8565b5050505050565b60008060009054906101000a900473ffffffffffffffffffffffffffffffffffffffff16905090565b600b5481565b600c5481565b600a6020528060005260406000206000915090508060000154908060010154908060020160009054906101000a900460ff16905083565b6103e881565b601260009054906101000a900473ffffffffffffffffffffffffffffffffffffffff1681565b60026001541415611384576040517f08c379a000000000000000000000000000000000000000000000000000000000815260040161137b906138b3565b60405180910390fd5b60026001819055506000600a60003373ffffffffffffffffffffffffffffffffffffffff1673ffffffffffffffffffffffffffffffffffffffff1681526020019081526020016000209050600c54816001015410611417576040517f08c379a000000000000000000000000000000000000000000000000000000000815260040161140e90613873565b60405180910390fd5b600081600001541161145e576040517f08c379a000000000000000000000000000000000000000000000000000000000815260040161145590613773565b60405180910390fd5b600061146933611cb4565b9050600081116114ae576040517f08c379a00000000000000000000000000000000000000000000000000000000081526004016114a590613893565b60405180910390fd5b43826001018190555080601060008282546114c99190613bff565b9250508190555060003373ffffffffffffffffffffffffffffffffffffffff16826040516114f690613597565b60006040518083038185875af1925050503d8060008114611533576040519150601f19603f3d011682016040523d82523d6000602084013e611538565b606091505b505090508061157c576040517f08c379a000000000000000000000000000000000000000000000000000000000815260040161157390613753565b60405180910390fd5b611585336126ba565b50505060018081905550565b600781815481106115a157600080fd5b906000526020600020016000915090505481565b600e5481565b60045481565b6115c9611f6d565b73ffffffffffffffffffffffffffffffffffffffff166115e76112a6565b73ffffffffffffffffffffffffffffffffffffffff161461163d576040517f08c379a000000000000000000000000000000000000000000000000000000000815260040161163490613813565b60405180910390fd5b60026001541415611683576040517f08c379a000000000000000000000000000000000000000000000000000000000815260040161167a906138b3565b60405180910390fd5b60026001819055506000601154116116d0576040517f08c379a00000000000000000000000000000000000000000000000000000000081526004016116c790613733565b60405180910390fd5b60006011549050600060118190555080601360008282546116f19190613b1e565b925050819055506000601260009054906101000a900473ffffffffffffffffffffffffffffffffffffffff1673ffffffffffffffffffffffffffffffffffffffff168260405161174090613597565b60006040518083038185875af1925050503d806000811461177d576040519150601f19603f3d011682016040523d82523d6000602084013e611782565b606091505b50509050806117c6576040517f08c379a00000000000000000000000000000000000000000000000000000000081526004016117bd90613753565b60405180910390fd5b7ff80dbcfd0fb2d20a424f2503e4e99f3bc964d89e8302d36521aedea19ed5e95d826040516117f59190613913565b60405180910390a1505060018081905550565b60105481565b60135481565b6002600154141561185a576040517f08c379a0000000000000000000000000000000000000000000000000000000008152600401611851906138b3565b60405180910390fd5b600260018190555060055434146118a6576040517f08c379a000000000000000000000000000000000000000000000000000000000815260040161189d906137b3565b60405180910390fd5b600454600260009054906101000a900473ffffffffffffffffffffffffffffffffffffffff1673ffffffffffffffffffffffffffffffffffffffff166318160ddd6040518163ffffffff1660e01b815260040160206040518083038186803b15801561191157600080fd5b505afa158015611925573d6000803e3d6000fd5b505050506040513d601f19601f820116820180604052508101906119499190612e5f565b10611989576040517f08c379a0000000000000000000000000000000000000000000000000000000008152600401611980906138d3565b60405180910390fd5b6000600860003373ffffffffffffffffffffffffffffffffffffffff1673ffffffffffffffffffffffffffffffffffffffff16815260200190815260200160002080546119d590613cbd565b80601f0160208091040260200160405190810160405280929190818152602001828054611a0190613cbd565b8015611a4e5780601f10611a2357610100808354040283529160200191611a4e565b820191906000526020600020905b815481529060010190602001808311611a3157829003601f168201915b505050505090506000815111611a99576040517f08c379a0000000000000000000000000000000000000000000000000000000008152600401611a9090613833565b60405180910390fd5b600080611aa46127d5565b915091506000600260009054906101000a900473ffffffffffffffffffffffffffffffffffffffff1673ffffffffffffffffffffffffffffffffffffffff16631b1ecbc53386898988886040518763ffffffff1660e01b8152600401611b0f96959493929190613652565b602060405180830381600087803b158015611b2957600080fd5b505af1158015611b3d573d6000803e3d6000fd5b505050506040513d601f19601f82011682018060405250810190611b619190612e5f565b90508215611b9a5760006040518060800160405280838152602001848152602001848152602001438152509050611b9833826125b8565b505b60405180602001604052806000815250600860003373ffffffffffffffffffffffffffffffffffffffff1673ffffffffffffffffffffffffffffffffffffffff1681526020019081526020016000209080519060200190611bfc929190612ac6565b506001600985604051611c0f919061353a565b908152602001604051809103902060006101000a81548160ff02191690831515021790555034600e6000828254611c469190613b1e565b925050819055503373ffffffffffffffffffffffffffffffffffffffff167f43de79bf410fc7b6846221fa9912e72b62d0d7e1e27fc31a6d8c568ec22859a0828888888888604051611c9d96959493929190613957565b60405180910390a250505050600180819055505050565b600080600a60008473ffffffffffffffffffffffffffffffffffffffff1673ffffffffffffffffffffffffffffffffffffffff16815260200190815260200160002060020160009054906101000a900460ff168015611d565750600c54600a60008573ffffffffffffffffffffffffffffffffffffffff1673ffffffffffffffffffffffffffffffffffffffff16815260200190815260200160002060010154105b15611dbb57600b54600a60008573ffffffffffffffffffffffffffffffffffffffff1673ffffffffffffffffffffffffffffffffffffffff16815260200190815260200160002060000154600f54611dae9190613ba5565b611db89190613b74565b90505b80915050919050565b611dcc611f6d565b73ffffffffffffffffffffffffffffffffffffffff16611dea6112a6565b73ffffffffffffffffffffffffffffffffffffffff1614611e40576040517f08c379a0000000000000000000000000000000000000000000000000000000008152600401611e3790613813565b60405180910390fd5b600073ffffffffffffffffffffffffffffffffffffffff168173ffffffffffffffffffffffffffffffffffffffff161415611eb0576040517f08c379a0000000000000000000000000000000000000000000000000000000008152600401611ea790613713565b60405180910390fd5b8073ffffffffffffffffffffffffffffffffffffffff1660008054906101000a900473ffffffffffffffffffffffffffffffffffffffff1673ffffffffffffffffffffffffffffffffffffffff167f8be0079c531659141344cd1fd0a4f28419497f9722a3daafe3b4186f6b6457e060405160405180910390a3806000806101000a81548173ffffffffffffffffffffffffffffffffffffffff021916908373ffffffffffffffffffffffffffffffffffffffff16021790555050565b600033905090565b600080600360009054906101000a900473ffffffffffffffffffffffffffffffffffffffff1673ffffffffffffffffffffffffffffffffffffffff1663a13be8776040518163ffffffff1660e01b81526004016040805180830381600087803b158015611fe157600080fd5b505af1158015611ff5573d6000803e3d6000fd5b505050506040513d601f19601f820116820180604052508101906120199190612ced565b91509150600073ffffffffffffffffffffffffffffffffffffffff168173ffffffffffffffffffffffffffffffffffffffff1614612100578173ffffffffffffffffffffffffffffffffffffffff1663095ea7b3827fffffffffffffffffffffffffffffffffffffffffffffffffffffffffffffffff6040518363ffffffff1660e01b81526004016120ac9291906136c8565b602060405180830381600087803b1580156120c657600080fd5b505af11580156120da573d6000803e3d6000fd5b505050506040513d601f19601f820116820180604052508101906120fe9190612da1565b505b6000600360009054906101000a900473ffffffffffffffffffffffffffffffffffffffff1673ffffffffffffffffffffffffffffffffffffffff1663b213ed186040518163ffffffff1660e01b815260040160a060405180830381600087803b15801561216c57600080fd5b505af1158015612180573d6000803e3d6000fd5b505050506040513d601f19601f820116820180604052508101906121a49190612d78565b9050600080600360009054906101000a900473ffffffffffffffffffffffffffffffffffffffff1673ffffffffffffffffffffffffffffffffffffffff1686846040516024016121f592919061392e565b6040516020818303038152906040527f391179b3000000000000000000000000000000000000000000000000000000007bffffffffffffffffffffffffffffffffffffffffffffffffffffffff19166020820180517bffffffffffffffffffffffffffffffffffffffffffffffffffffffff838183161783525050505060405161227f9190613523565b600060405180830381855af49150503d80600081146122ba576040519150601f19603f3d011682016040523d82523d6000602084013e6122bf565b606091505b509150915081612304576040517f08c379a00000000000000000000000000000000000000000000000000000000081526004016122fb90613853565b60405180910390fd5b505050505050565b60608060005b6007805490508110156123b757600061236f6007838154811061235e577f4e487b7100000000000000000000000000000000000000000000000000000000600052603260045260246000fd5b90600052602060002001548661288a565b9050600061237c826128cf565b90508381604051602001612391929190613551565b6040516020818303038152906040529350505080806123af90613cef565b915050612312565b5080915050919050565b600080600a60008573ffffffffffffffffffffffffffffffffffffffff1673ffffffffffffffffffffffffffffffffffffffff168152602001908152602001600020905060008060005b83600301805490508110156125ab5785846003018281548110612457577f4e487b7100000000000000000000000000000000000000000000000000000000600052603260045260246000fd5b906000526020600020906004020160000154141561257d578360030181815481106124ab577f4e487b7100000000000000000000000000000000000000000000000000000000600052603260045260246000fd5b90600052602060002090600402016001015491508360030181815481106124fb577f4e487b7100000000000000000000000000000000000000000000000000000000600052603260045260246000fd5b906000526020600020906004020160020154925083600301818154811061254b577f4e487b7100000000000000000000000000000000000000000000000000000000600052603260045260246000fd5b906000526020600020906004020160008082016000905560018201600090556002820160009055600382016000905550505b828460000160008282546125919190613bff565b9250508190555080806125a390613cef565b91505061240b565b5080935050505092915050565b6000600a60008473ffffffffffffffffffffffffffffffffffffffff1673ffffffffffffffffffffffffffffffffffffffff168152602001908152602001600020905060018160020160006101000a81548160ff02191690831515021790555043816001018190555081604001518160000160008282546126399190613b1e565b92505081905550806003018290806001815401808255809150506001900390600052602060002090600402016000909190919091506000820151816000015560208201518160010155604082015181600201556060820151816003015550508160400151600b60008282546126ae9190613b1e565b92505081905550505050565b6000600a60008373ffffffffffffffffffffffffffffffffffffffff1673ffffffffffffffffffffffffffffffffffffffff1681526020019081526020016000209050600080600090505b826003018054905081101561279b57600a836003018281548110612752577f4e487b7100000000000000000000000000000000000000000000000000000000600052603260045260246000fd5b906000526020600020906004020160020160008282546127729190613b1e565b92505081905550600a826127869190613b1e565b9150808061279390613cef565b915050612705565b50808260000160008282546127b09190613b1e565b9250508190555080600b60008282546127c99190613b1e565b92505081905550505050565b600080600060644442436040516020016127f1939291906135ac565b6040516020818303038152906040528051906020012060001c6128149190613d42565b9050600060065482111590506000811561287d5760018061012c6128389190613bff565b44424360405160200161284d939291906135ac565b6040516020818303038152906040528051906020012060001c6128709190613d42565b61287a9190613b1e565b90505b8181945094505050509091565b600082444243856040516020016128a494939291906135e9565b6040516020818303038152906040528051906020012060001c6128c79190613d42565b905092915050565b6060600a82106128e9576128e282612919565b9050612914565b6128f282612919565b6040516020016129029190613575565b60405160208183030381529060405290505b919050565b60606000821415612961576040518060400160405280600181526020017f30000000000000000000000000000000000000000000000000000000000000008152509050612ac1565b600082905060005b6000821461299357808061297c90613cef565b915050600a8261298c9190613b74565b9150612969565b60008167ffffffffffffffff8111156129d5577f4e487b7100000000000000000000000000000000000000000000000000000000600052604160045260246000fd5b6040519080825280601f01601f191660200182016040528015612a075781602001600182028036833780820191505090505b5090505b60008514612aba57600182612a209190613bff565b9150600a85612a2f9190613d42565b6030612a3b9190613b1e565b60f81b818381518110612a77577f4e487b7100000000000000000000000000000000000000000000000000000000600052603260045260246000fd5b60200101907effffffffffffffffffffffffffffffffffffffffffffffffffffffffffffff1916908160001a905350600a85612ab39190613b74565b9450612a0b565b8093505050505b919050565b828054612ad290613cbd565b90600052602060002090601f016020900481019282612af45760008555612b3b565b82601f10612b0d57805160ff1916838001178555612b3b565b82800160010185558215612b3b579182015b82811115612b3a578251825591602001919060010190612b1f565b5b509050612b489190612b4c565b5090565b5b80821115612b65576000816000905550600101612b4d565b5090565b6000612b7c612b7784613a5e565b613a2d565b90508082856020860282011115612b9257600080fd5b60005b85811015612bc25781612ba88882612c1f565b845260208401935060208301925050600181019050612b95565b5050509392505050565b6000612bdf612bda84613a84565b613a2d565b905082815260208101848484011115612bf757600080fd5b612c02848285613c7b565b509392505050565b600081359050612c1981613e40565b92915050565b600081519050612c2e81613e40565b92915050565b600082601f830112612c4557600080fd5b6005612c52848285612b69565b91505092915050565b600081519050612c6a81613e57565b92915050565b600082601f830112612c8157600080fd5b8135612c91848260208601612bcc565b91505092915050565b600081359050612ca981613e6e565b92915050565b600081519050612cbe81613e6e565b92915050565b600060208284031215612cd657600080fd5b6000612ce484828501612c0a565b91505092915050565b60008060408385031215612d0057600080fd5b6000612d0e85828601612c1f565b9250506020612d1f85828601612c1f565b9150509250929050565b600080600060608486031215612d3e57600080fd5b6000612d4c86828701612c0a565b9350506020612d5d86828701612c0a565b9250506040612d6e86828701612c9a565b9150509250925092565b600060a08284031215612d8a57600080fd5b6000612d9884828501612c34565b91505092915050565b600060208284031215612db357600080fd5b6000612dc184828501612c5b565b91505092915050565b60008060408385031215612ddd57600080fd5b600083013567ffffffffffffffff811115612df757600080fd5b612e0385828601612c70565b925050602083013567ffffffffffffffff811115612e2057600080fd5b612e2c85828601612c70565b9150509250929050565b600060208284031215612e4857600080fd5b6000612e5684828501612c9a565b91505092915050565b600060208284031215612e7157600080fd5b6000612e7f84828501612caf565b91505092915050565b6000612e948383612ea0565b60208301905092915050565b612ea981613c33565b82525050565b612eb881613c33565b82525050565b612ec781613abe565b612ed18184613aec565b9250612edc82613ab4565b8060005b83811015612f0d578151612ef48782612e88565b9650612eff83613adf565b925050600181019050612ee0565b505050505050565b612f1e81613c45565b82525050565b6000612f2f82613ac9565b612f398185613af7565b9350612f49818560208601613c8a565b80840191505092915050565b6000612f6082613ad4565b612f6a8185613b02565b9350612f7a818560208601613c8a565b612f8381613e2f565b840191505092915050565b6000612f9982613ad4565b612fa38185613b13565b9350612fb3818560208601613c8a565b80840191505092915050565b6000612fcc600183613b13565b91507f30000000000000000000000000000000000000000000000000000000000000006000830152600182019050919050565b600061300c602683613b02565b91507f4f776e61626c653a206e6577206f776e657220697320746865207a65726f206160008301527f64647265737300000000000000000000000000000000000000000000000000006020830152604082019050919050565b6000613072602583613b02565b91507f4e6f7420656e6f75676820756e636c61696d6564207969656c6420746f20626560008301527f2073656e740000000000000000000000000000000000000000000000000000006020830152604082019050919050565b60006130d8601483613b02565b91507f5472616e736665722066656573206661696c65640000000000000000000000006000830152602082019050919050565b6000613118601f83613b02565b91507f4e6f7420656e6f756768204e46542077656967687420746f2072656465656d006000830152602082019050919050565b6000613158602583613b02565b91507f50726f626162696c6974792073686f756c64206265206265747765656e20302060008301527f2d203130300000000000000000000000000000000000000000000000000000006020830152604082019050919050565b60006131be601483613b02565b91507f5072696365206973206e6f7420636f72726563740000000000000000000000006000830152602082019050919050565b60006131fe601e83613b02565b91507f43616c6c6572206973206e6f7420746865204e465420636f6e747261637400006000830152602082019050919050565b600061323e601783613b02565b91507f5374616b696e67207769746864726177206661696c65640000000000000000006000830152602082019050919050565b600061327e602083613b02565b91507f4f776e61626c653a2063616c6c6572206973206e6f7420746865206f776e65726000830152602082019050919050565b60006132be602b83613b02565b91507f53686f756c642067656e657261746520612072616e646f6d20444e412062656660008301527f6f7265206d696e74696e670000000000000000000000000000000000000000006020830152604082019050919050565b6000613324601683613b02565b91507f5374616b696e67206465706f736974206661696c6564000000000000000000006000830152602082019050919050565b6000613364601683613b02565b91507f5969656c6420616c72656164792072656465656d6564000000000000000000006000830152602082019050919050565b60006133a4600083613af7565b9150600082019050919050565b60006133be602283613b02565b91507f596f7520646f206e6f74206861766520616e797468696e6720746f207265646560008301527f656d0000000000000000000000000000000000000000000000000000000000006020830152604082019050919050565b6000613424601f83613b02565b91507f5265656e7472616e637947756172643a207265656e7472616e742063616c6c006000830152602082019050919050565b6000613464601b83613b02565b91507f4d617820737570706c7920686173206265656e207265616368656400000000006000830152602082019050919050565b60006134a4602d83613b02565b91507f4d617820737570706c792063616e6e6f74206265206c657373207468616e206360008301527f757272656e7420737570706c79000000000000000000000000000000000000006020830152604082019050919050565b61350681613c71565b82525050565b61351d61351882613c71565b613d38565b82525050565b600061352f8284612f24565b915081905092915050565b60006135468284612f8e565b915081905092915050565b600061355d8285612f8e565b91506135698284612f8e565b91508190509392505050565b600061358082612fbf565b915061358c8284612f8e565b915081905092915050565b60006135a282613397565b9150819050919050565b60006135b8828661350c565b6020820191506135c8828561350c565b6020820191506135d8828461350c565b602082019150819050949350505050565b60006135f5828761350c565b602082019150613605828661350c565b602082019150613615828561350c565b602082019150613625828461350c565b60208201915081905095945050505050565b600060208201905061364c6000830184612eaf565b92915050565b600060c0820190506136676000830189612eaf565b81810360208301526136798188612f55565b9050818103604083015261368d8187612f55565b905081810360608301526136a18186612f55565b90506136b06080830185612f15565b6136bd60a08301846134fd565b979650505050505050565b60006040820190506136dd6000830185612eaf565b6136ea60208301846134fd565b9392505050565b6000602082019050818103600083015261370b8184612f55565b905092915050565b6000602082019050818103600083015261372c81612fff565b9050919050565b6000602082019050818103600083015261374c81613065565b9050919050565b6000602082019050818103600083015261376c816130cb565b9050919050565b6000602082019050818103600083015261378c8161310b565b9050919050565b600060208201905081810360008301526137ac8161314b565b9050919050565b600060208201905081810360008301526137cc816131b1565b9050919050565b600060208201905081810360008301526137ec816131f1565b9050919050565b6000602082019050818103600083015261380c81613231565b9050919050565b6000602082019050818103600083015261382c81613271565b9050919050565b6000602082019050818103600083015261384c816132b1565b9050919050565b6000602082019050818103600083015261386c81613317565b9050919050565b6000602082019050818103600083015261388c81613357565b9050919050565b600060208201905081810360008301526138ac816133b1565b9050919050565b600060208201905081810360008301526138cc81613417565b9050919050565b600060208201905081810360008301526138ec81613457565b9050919050565b6000602082019050818103600083015261390c81613497565b9050919050565b600060208201905061392860008301846134fd565b92915050565b600060c08201905061394360008301856134fd565b6139506020830184612ebe565b9392505050565b600060c08201905061396c60008301896134fd565b818103602083015261397e8188612f55565b905081810360408301526139928187612f55565b905081810360608301526139a68186612f55565b90506139b56080830185612f15565b6139c260a08301846134fd565b979650505050505050565b60006040820190506139e260008301856134fd565b6139ef60208301846134fd565b9392505050565b6000606082019050613a0b60008301866134fd565b613a1860208301856134fd565b613a256040830184612f15565b949350505050565b6000604051905081810181811067ffffffffffffffff82111715613a5457613a53613e00565b5b8060405250919050565b600067ffffffffffffffff821115613a7957613a78613e00565b5b602082029050919050565b600067ffffffffffffffff821115613a9f57613a9e613e00565b5b601f19601f8301169050602081019050919050565b6000819050919050565b600060059050919050565b600081519050919050565b600081519050919050565b6000602082019050919050565b600081905092915050565b600081905092915050565b600082825260208201905092915050565b600081905092915050565b6000613b2982613c71565b9150613b3483613c71565b9250827fffffffffffffffffffffffffffffffffffffffffffffffffffffffffffffffff03821115613b6957613b68613d73565b5b828201905092915050565b6000613b7f82613c71565b9150613b8a83613c71565b925082613b9a57613b99613da2565b5b828204905092915050565b6000613bb082613c71565b9150613bbb83613c71565b9250817fffffffffffffffffffffffffffffffffffffffffffffffffffffffffffffffff0483118215151615613bf457613bf3613d73565b5b828202905092915050565b6000613c0a82613c71565b9150613c1583613c71565b925082821015613c2857613c27613d73565b5b828203905092915050565b6000613c3e82613c51565b9050919050565b60008115159050919050565b600073ffffffffffffffffffffffffffffffffffffffff82169050919050565b6000819050919050565b82818337600083830152505050565b60005b83811015613ca8578082015181840152602081019050613c8d565b83811115613cb7576000848401525b50505050565b60006002820490506001821680613cd557607f821691505b60208210811415613ce957613ce8613dd1565b5b50919050565b6000613cfa82613c71565b91507fffffffffffffffffffffffffffffffffffffffffffffffffffffffffffffffff821415613d2d57613d2c613d73565b5b600182019050919050565b6000819050919050565b6000613d4d82613c71565b9150613d5883613c71565b925082613d6857613d67613da2565b5b828206905092915050565b7f4e487b7100000000000000000000000000000000000000000000000000000000600052601160045260246000fd5b7f4e487b7100000000000000000000000000000000000000000000000000000000600052601260045260246000fd5b7f4e487b7100000000000000000000000000000000000000000000000000000000600052602260045260246000fd5b7f4e487b7100000000000000000000000000000000000000000000000000000000600052604160045260246000fd5b6000601f19601f8301169050919050565b613e4981613c33565b8114613e5457600080fd5b50565b613e6081613c45565b8114613e6b57600080fd5b50565b613e7781613c71565b8114613e8257600080fd5b5056fea26469706673582212203b196345c14a4e1374c3d794997b730cbcddca839faa48c0598e2b46e87b169064736f6c63430008000033",
  "linkReferences": {},
  "deployedLinkReferences": {}
}