{
  "_format": "hh-sol-artifact-1",
  "contractName": "Plasmids",
  "sourceName": "contracts/Plasmids.sol",
  "abi": [
    {
      "inputs": [],
      "stateMutability": "nonpayable",
      "type": "constructor"
    },
    {
      "anonymous": false,
      "inputs": [
        {
          "indexed": true,
          "internalType": "address",
          "name": "owner",
          "type": "address"
        },
        {
          "indexed": true,
          "internalType": "address",
          "name": "approved",
          "type": "address"
        },
        {
          "indexed": true,
          "internalType": "uint256",
          "name": "tokenId",
          "type": "uint256"
        }
      ],
      "name": "Approval",
      "type": "event"
    },
    {
      "anonymous": false,
      "inputs": [
        {
          "indexed": true,
          "internalType": "address",
          "name": "owner",
          "type": "address"
        },
        {
          "indexed": true,
          "internalType": "address",
          "name": "operator",
          "type": "address"
        },
        {
          "indexed": false,
          "internalType": "bool",
          "name": "approved",
          "type": "bool"
        }
      ],
      "name": "ApprovalForAll",
      "type": "event"
    },
    {
      "anonymous": false,
      "inputs": [
        {
          "indexed": true,
          "internalType": "address",
          "name": "addr",
          "type": "address"
        }
      ],
      "name": "FactoryChanged",
      "type": "event"
    },
    {
      "anonymous": false,
      "inputs": [
        {
          "indexed": true,
          "internalType": "address",
          "name": "previousOwner",
          "type": "address"
        },
        {
          "indexed": true,
          "internalType": "address",
          "name": "newOwner",
          "type": "address"
        }
      ],
      "name": "OwnershipTransferred",
      "type": "event"
    },
    {
      "anonymous": false,
      "inputs": [
        {
          "indexed": true,
          "internalType": "address",
          "name": "from",
          "type": "address"
        },
        {
          "indexed": true,
          "internalType": "address",
          "name": "to",
          "type": "address"
        },
        {
          "indexed": true,
          "internalType": "uint256",
          "name": "tokenId",
          "type": "uint256"
        }
      ],
      "name": "Transfer",
      "type": "event"
    },
    {
      "inputs": [
        {
          "internalType": "address",
          "name": "to",
          "type": "address"
        },
        {
          "internalType": "uint256",
          "name": "tokenId",
          "type": "uint256"
        }
      ],
      "name": "approve",
      "outputs": [],
      "stateMutability": "nonpayable",
      "type": "function"
    },
    {
      "inputs": [
        {
          "internalType": "address",
          "name": "owner",
          "type": "address"
        }
      ],
      "name": "balanceOf",
      "outputs": [
        {
          "internalType": "uint256",
          "name": "",
          "type": "uint256"
        }
      ],
      "stateMutability": "view",
      "type": "function"
    },
    {
      "inputs": [],
      "name": "factory",
      "outputs": [
        {
          "internalType": "address",
          "name": "",
          "type": "address"
        }
      ],
      "stateMutability": "view",
      "type": "function"
    },
    {
      "inputs": [
        {
          "internalType": "uint256",
          "name": "tokenId",
          "type": "uint256"
        }
      ],
      "name": "getApproved",
      "outputs": [
        {
          "internalType": "address",
          "name": "",
          "type": "address"
        }
      ],
      "stateMutability": "view",
      "type": "function"
    },
    {
      "inputs": [
        {
          "internalType": "address",
          "name": "owner",
          "type": "address"
        },
        {
          "internalType": "address",
          "name": "operator",
          "type": "address"
        }
      ],
      "name": "isApprovedForAll",
      "outputs": [
        {
          "internalType": "bool",
          "name": "",
          "type": "bool"
        }
      ],
      "stateMutability": "view",
      "type": "function"
    },
    {
      "inputs": [
        {
          "internalType": "address",
          "name": "_owner",
          "type": "address"
        },
        {
          "internalType": "string",
          "name": "_dna",
          "type": "string"
        },
        {
          "internalType": "string",
          "name": "_imageURI",
          "type": "string"
        },
        {
          "internalType": "string",
          "name": "_metadataURI",
          "type": "string"
        },
        {
          "internalType": "bool",
          "name": "_isSpecial",
          "type": "bool"
        },
        {
          "internalType": "uint256",
          "name": "_weight",
          "type": "uint256"
        }
      ],
      "name": "mint",
      "outputs": [
        {
          "internalType": "uint256",
          "name": "",
          "type": "uint256"
        }
      ],
      "stateMutability": "nonpayable",
      "type": "function"
    },
    {
      "inputs": [],
      "name": "name",
      "outputs": [
        {
          "internalType": "string",
          "name": "",
          "type": "string"
        }
      ],
      "stateMutability": "view",
      "type": "function"
    },
    {
      "inputs": [
        {
          "internalType": "uint256",
          "name": "",
          "type": "uint256"
        }
      ],
      "name": "nfts",
      "outputs": [
        {
          "internalType": "string",
          "name": "dna",
          "type": "string"
        },
        {
          "internalType": "string",
          "name": "imageURI",
          "type": "string"
        },
        {
          "internalType": "bool",
          "name": "isSpecial",
          "type": "bool"
        },
        {
          "internalType": "uint256",
          "name": "weight",
          "type": "uint256"
        }
      ],
      "stateMutability": "view",
      "type": "function"
    },
    {
      "inputs": [],
      "name": "owner",
      "outputs": [
        {
          "internalType": "address",
          "name": "",
          "type": "address"
        }
      ],
      "stateMutability": "view",
      "type": "function"
    },
    {
      "inputs": [
        {
          "internalType": "uint256",
          "name": "tokenId",
          "type": "uint256"
        }
      ],
      "name": "ownerOf",
      "outputs": [
        {
          "internalType": "address",
          "name": "",
          "type": "address"
        }
      ],
      "stateMutability": "view",
      "type": "function"
    },
    {
      "inputs": [],
      "name": "renounceOwnership",
      "outputs": [],
      "stateMutability": "nonpayable",
      "type": "function"
    },
    {
      "inputs": [
        {
          "internalType": "address",
          "name": "from",
          "type": "address"
        },
        {
          "internalType": "address",
          "name": "to",
          "type": "address"
        },
        {
          "internalType": "uint256",
          "name": "tokenId",
          "type": "uint256"
        }
      ],
      "name": "safeTransferFrom",
      "outputs": [],
      "stateMutability": "nonpayable",
      "type": "function"
    },
    {
      "inputs": [
        {
          "internalType": "address",
          "name": "from",
          "type": "address"
        },
        {
          "internalType": "address",
          "name": "to",
          "type": "address"
        },
        {
          "internalType": "uint256",
          "name": "tokenId",
          "type": "uint256"
        },
        {
          "internalType": "bytes",
          "name": "_data",
          "type": "bytes"
        }
      ],
      "name": "safeTransferFrom",
      "outputs": [],
      "stateMutability": "nonpayable",
      "type": "function"
    },
    {
      "inputs": [
        {
          "internalType": "address",
          "name": "operator",
          "type": "address"
        },
        {
          "internalType": "bool",
          "name": "approved",
          "type": "bool"
        }
      ],
      "name": "setApprovalForAll",
      "outputs": [],
      "stateMutability": "nonpayable",
      "type": "function"
    },
    {
      "inputs": [
        {
          "internalType": "address",
          "name": "_addr",
          "type": "address"
        }
      ],
      "name": "setFactory",
      "outputs": [],
      "stateMutability": "nonpayable",
      "type": "function"
    },
    {
      "inputs": [
        {
          "internalType": "bytes4",
          "name": "interfaceId",
          "type": "bytes4"
        }
      ],
      "name": "supportsInterface",
      "outputs": [
        {
          "internalType": "bool",
          "name": "",
          "type": "bool"
        }
      ],
      "stateMutability": "view",
      "type": "function"
    },
    {
      "inputs": [],
      "name": "symbol",
      "outputs": [
        {
          "internalType": "string",
          "name": "",
          "type": "string"
        }
      ],
      "stateMutability": "view",
      "type": "function"
    },
    {
      "inputs": [
        {
          "internalType": "uint256",
          "name": "tokenId",
          "type": "uint256"
        }
      ],
      "name": "tokenURI",
      "outputs": [
        {
          "internalType": "string",
          "name": "",
          "type": "string"
        }
      ],
      "stateMutability": "view",
      "type": "function"
    },
    {
      "inputs": [],
      "name": "totalSupply",
      "outputs": [
        {
          "internalType": "uint256",
          "name": "",
          "type": "uint256"
        }
      ],
      "stateMutability": "view",
      "type": "function"
    },
    {
      "inputs": [
        {
          "internalType": "address",
          "name": "from",
          "type": "address"
        },
        {
          "internalType": "address",
          "name": "to",
          "type": "address"
        },
        {
          "internalType": "uint256",
          "name": "tokenId",
          "type": "uint256"
        }
      ],
      "name": "transferFrom",
      "outputs": [],
      "stateMutability": "nonpayable",
      "type": "function"
    },
    {
      "inputs": [
        {
          "internalType": "address",
          "name": "newOwner",
          "type": "address"
        }
      ],
      "name": "transferOwnership",
      "outputs": [],
      "stateMutability": "nonpayable",
      "type": "function"
    }
  ],
  "bytecode": "0x60806040523480156200001157600080fd5b506040518060400160405280600881526020017f506c61736d6964730000000000000000000000000000000000000000000000008152506040518060400160405280600581526020017f504c41534d00000000000000000000000000000000000000000000000000000081525081600090805190602001906200009692919062000171565b508060019080519060200190620000af92919062000171565b5050506000620000c46200016960201b60201c565b905080600760006101000a81548173ffffffffffffffffffffffffffffffffffffffff021916908373ffffffffffffffffffffffffffffffffffffffff1602179055508073ffffffffffffffffffffffffffffffffffffffff16600073ffffffffffffffffffffffffffffffffffffffff167f8be0079c531659141344cd1fd0a4f28419497f9722a3daafe3b4186f6b6457e060405160405180910390a35062000286565b600033905090565b8280546200017f9062000221565b90600052602060002090601f016020900481019282620001a35760008555620001ef565b82601f10620001be57805160ff1916838001178555620001ef565b82800160010185558215620001ef579182015b82811115620001ee578251825591602001919060010190620001d1565b5b509050620001fe919062000202565b5090565b5b808211156200021d57600081600090555060010162000203565b5090565b600060028204905060018216806200023a57607f821691505b6020821081141562000251576200025062000257565b5b50919050565b7f4e487b7100000000000000000000000000000000000000000000000000000000600052602260045260246000fd5b6136cc80620002966000396000f3fe608060405234801561001057600080fd5b50600436106101375760003560e01c80636352211e116100b8578063a22cb4651161007c578063a22cb46514610351578063b88d4fde1461036d578063c45a015514610389578063c87b56dd146103a7578063e985e9c5146103d7578063f2fde38b1461040757610137565b80636352211e146102ab57806370a08231146102db578063715018a61461030b5780638da5cb5b1461031557806395d89b411461033357610137565b80631b1ecbc5116100ff5780631b1ecbc5146101f457806323b872dd14610224578063265aa6211461024057806342842e0e146102735780635bb478081461028f57610137565b806301ffc9a71461013c57806306fdde031461016c578063081812fc1461018a578063095ea7b3146101ba57806318160ddd146101d6575b600080fd5b6101566004803603810190610151919061260a565b610423565b6040516101639190612f51565b60405180910390f35b610174610505565b6040516101819190612f6c565b60405180910390f35b6101a4600480360381019061019f919061265c565b610597565b6040516101b19190612eb3565b60405180910390f35b6101d460048036038101906101cf91906125ce565b61061c565b005b6101de610734565b6040516101eb9190613261565b60405180910390f35b61020e600480360381019061020991906124fd565b610741565b60405161021b9190613261565b60405180910390f35b61023e600480360381019061023991906123f7565b6108b3565b005b61025a6004803603810190610255919061265c565b610913565b60405161026a9493929190612f8e565b60405180910390f35b61028d600480360381019061028891906123f7565b610a70565b005b6102a960048036038101906102a49190612392565b610a90565b005b6102c560048036038101906102c0919061265c565b610c03565b6040516102d29190612eb3565b60405180910390f35b6102f560048036038101906102f09190612392565b610cb5565b6040516103029190613261565b60405180910390f35b610313610d6d565b005b61031d610eaa565b60405161032a9190612eb3565b60405180910390f35b61033b610ed4565b6040516103489190612f6c565b60405180910390f35b61036b600480360381019061036691906124c1565b610f66565b005b61038760048036038101906103829190612446565b6110e7565b005b610391611149565b60405161039e9190612eb3565b60405180910390f35b6103c160048036038101906103bc919061265c565b61116f565b6040516103ce9190612f6c565b60405180910390f35b6103f160048036038101906103ec91906123bb565b611181565b6040516103fe9190612f51565b60405180910390f35b610421600480360381019061041c9190612392565b611215565b005b60007f80ac58cd000000000000000000000000000000000000000000000000000000007bffffffffffffffffffffffffffffffffffffffffffffffffffffffff1916827bffffffffffffffffffffffffffffffffffffffffffffffffffffffff191614806104ee57507f5b5e139f000000000000000000000000000000000000000000000000000000007bffffffffffffffffffffffffffffffffffffffffffffffffffffffff1916827bffffffffffffffffffffffffffffffffffffffffffffffffffffffff1916145b806104fe57506104fd826113c1565b5b9050919050565b606060008054610514906134c1565b80601f0160208091040260200160405190810160405280929190818152602001828054610540906134c1565b801561058d5780601f106105625761010080835404028352916020019161058d565b820191906000526020600020905b81548152906001019060200180831161057057829003601f168201915b5050505050905090565b60006105a28261142b565b6105e1576040517f08c379a00000000000000000000000000000000000000000000000000000000081526004016105d890613181565b60405180910390fd5b6004600083815260200190815260200160002060009054906101000a900473ffffffffffffffffffffffffffffffffffffffff169050919050565b600061062782610c03565b90508073ffffffffffffffffffffffffffffffffffffffff168373ffffffffffffffffffffffffffffffffffffffff161415610698576040517f08c379a000000000000000000000000000000000000000000000000000000000815260040161068f90613201565b60405180910390fd5b8073ffffffffffffffffffffffffffffffffffffffff166106b7611497565b73ffffffffffffffffffffffffffffffffffffffff1614806106e657506106e5816106e0611497565b611181565b5b610725576040517f08c379a000000000000000000000000000000000000000000000000000000000815260040161071c906130c1565b60405180910390fd5b61072f838361149f565b505050565b6000600980549050905090565b6000600860009054906101000a900473ffffffffffffffffffffffffffffffffffffffff1673ffffffffffffffffffffffffffffffffffffffff163373ffffffffffffffffffffffffffffffffffffffff16146107d3576040517f08c379a00000000000000000000000000000000000000000000000000000000081526004016107ca90613061565b60405180910390fd5b6000600980549050905060096040518060800160405280898152602001888152602001861515815260200185815250908060018154018082558091505060019003906000526020600020906004020160009091909190915060008201518160000190805190602001906108479291906121b6565b5060208201518160010190805190602001906108649291906121b6565b5060408201518160020160006101000a81548160ff02191690831515021790555060608201518160030155505061089b8882611558565b6108a58186611576565b809150509695505050505050565b6108c46108be611497565b826115ea565b610903576040517f08c379a00000000000000000000000000000000000000000000000000000000081526004016108fa90613221565b60405180910390fd5b61090e8383836116c8565b505050565b6009818154811061092357600080fd5b9060005260206000209060040201600091509050806000018054610946906134c1565b80601f0160208091040260200160405190810160405280929190818152602001828054610972906134c1565b80156109bf5780601f10610994576101008083540402835291602001916109bf565b820191906000526020600020905b8154815290600101906020018083116109a257829003601f168201915b5050505050908060010180546109d4906134c1565b80601f0160208091040260200160405190810160405280929190818152602001828054610a00906134c1565b8015610a4d5780601f10610a2257610100808354040283529160200191610a4d565b820191906000526020600020905b815481529060010190602001808311610a3057829003601f168201915b5050505050908060020160009054906101000a900460ff16908060030154905084565b610a8b838383604051806020016040528060008152506110e7565b505050565b610a98611497565b73ffffffffffffffffffffffffffffffffffffffff16610ab6610eaa565b73ffffffffffffffffffffffffffffffffffffffff1614610b0c576040517f08c379a0000000000000000000000000000000000000000000000000000000008152600401610b03906131a1565b60405180910390fd5b600073ffffffffffffffffffffffffffffffffffffffff168173ffffffffffffffffffffffffffffffffffffffff161415610b7c576040517f08c379a0000000000000000000000000000000000000000000000000000000008152600401610b7390613241565b60405180910390fd5b80600860006101000a81548173ffffffffffffffffffffffffffffffffffffffff021916908373ffffffffffffffffffffffffffffffffffffffff1602179055508073ffffffffffffffffffffffffffffffffffffffff167f7ead54cd1fd7e5ddea18605dec62ecb6a27d1f68bee1054cbf93b7abb4e1dc6b60405160405180910390a250565b6000806002600084815260200190815260200160002060009054906101000a900473ffffffffffffffffffffffffffffffffffffffff169050600073ffffffffffffffffffffffffffffffffffffffff168173ffffffffffffffffffffffffffffffffffffffff161415610cac576040517f08c379a0000000000000000000000000000000000000000000000000000000008152600401610ca390613101565b60405180910390fd5b80915050919050565b60008073ffffffffffffffffffffffffffffffffffffffff168273ffffffffffffffffffffffffffffffffffffffff161415610d26576040517f08c379a0000000000000000000000000000000000000000000000000000000008152600401610d1d906130e1565b60405180910390fd5b600360008373ffffffffffffffffffffffffffffffffffffffff1673ffffffffffffffffffffffffffffffffffffffff168152602001908152602001600020549050919050565b610d75611497565b73ffffffffffffffffffffffffffffffffffffffff16610d93610eaa565b73ffffffffffffffffffffffffffffffffffffffff1614610de9576040517f08c379a0000000000000000000000000000000000000000000000000000000008152600401610de0906131a1565b60405180910390fd5b600073ffffffffffffffffffffffffffffffffffffffff16600760009054906101000a900473ffffffffffffffffffffffffffffffffffffffff1673ffffffffffffffffffffffffffffffffffffffff167f8be0079c531659141344cd1fd0a4f28419497f9722a3daafe3b4186f6b6457e060405160405180910390a36000600760006101000a81548173ffffffffffffffffffffffffffffffffffffffff021916908373ffffffffffffffffffffffffffffffffffffffff160217905550565b6000600760009054906101000a900473ffffffffffffffffffffffffffffffffffffffff16905090565b606060018054610ee3906134c1565b80601f0160208091040260200160405190810160405280929190818152602001828054610f0f906134c1565b8015610f5c5780601f10610f3157610100808354040283529160200191610f5c565b820191906000526020600020905b815481529060010190602001808311610f3f57829003601f168201915b5050505050905090565b610f6e611497565b73ffffffffffffffffffffffffffffffffffffffff168273ffffffffffffffffffffffffffffffffffffffff161415610fdc576040517f08c379a0000000000000000000000000000000000000000000000000000000008152600401610fd390613081565b60405180910390fd5b8060056000610fe9611497565b73ffffffffffffffffffffffffffffffffffffffff1673ffffffffffffffffffffffffffffffffffffffff16815260200190815260200160002060008473ffffffffffffffffffffffffffffffffffffffff1673ffffffffffffffffffffffffffffffffffffffff16815260200190815260200160002060006101000a81548160ff0219169083151502179055508173ffffffffffffffffffffffffffffffffffffffff16611096611497565b73ffffffffffffffffffffffffffffffffffffffff167f17307eab39ab6107e8899845ad3d59bd9653f200f220920489ca2b5937696c31836040516110db9190612f51565b60405180910390a35050565b6110f86110f2611497565b836115ea565b611137576040517f08c379a000000000000000000000000000000000000000000000000000000000815260040161112e90613221565b60405180910390fd5b61114384848484611924565b50505050565b600860009054906101000a900473ffffffffffffffffffffffffffffffffffffffff1681565b606061117a82611980565b9050919050565b6000600560008473ffffffffffffffffffffffffffffffffffffffff1673ffffffffffffffffffffffffffffffffffffffff16815260200190815260200160002060008373ffffffffffffffffffffffffffffffffffffffff1673ffffffffffffffffffffffffffffffffffffffff16815260200190815260200160002060009054906101000a900460ff16905092915050565b61121d611497565b73ffffffffffffffffffffffffffffffffffffffff1661123b610eaa565b73ffffffffffffffffffffffffffffffffffffffff1614611291576040517f08c379a0000000000000000000000000000000000000000000000000000000008152600401611288906131a1565b60405180910390fd5b600073ffffffffffffffffffffffffffffffffffffffff168173ffffffffffffffffffffffffffffffffffffffff161415611301576040517f08c379a00000000000000000000000000000000000000000000000000000000081526004016112f890613001565b60405180910390fd5b8073ffffffffffffffffffffffffffffffffffffffff16600760009054906101000a900473ffffffffffffffffffffffffffffffffffffffff1673ffffffffffffffffffffffffffffffffffffffff167f8be0079c531659141344cd1fd0a4f28419497f9722a3daafe3b4186f6b6457e060405160405180910390a380600760006101000a81548173ffffffffffffffffffffffffffffffffffffffff021916908373ffffffffffffffffffffffffffffffffffffffff16021790555050565b60007f01ffc9a7000000000000000000000000000000000000000000000000000000007bffffffffffffffffffffffffffffffffffffffffffffffffffffffff1916827bffffffffffffffffffffffffffffffffffffffffffffffffffffffff1916149050919050565b60008073ffffffffffffffffffffffffffffffffffffffff166002600084815260200190815260200160002060009054906101000a900473ffffffffffffffffffffffffffffffffffffffff1673ffffffffffffffffffffffffffffffffffffffff1614159050919050565b600033905090565b816004600083815260200190815260200160002060006101000a81548173ffffffffffffffffffffffffffffffffffffffff021916908373ffffffffffffffffffffffffffffffffffffffff160217905550808273ffffffffffffffffffffffffffffffffffffffff1661151283610c03565b73ffffffffffffffffffffffffffffffffffffffff167f8c5be1e5ebec7d5bd14f71427d1e84f3dd0314c0f7b2291e5b200ac8c7c3b92560405160405180910390a45050565b611572828260405180602001604052806000815250611ad2565b5050565b61157f8261142b565b6115be576040517f08c379a00000000000000000000000000000000000000000000000000000000081526004016115b590613121565b60405180910390fd5b806006600084815260200190815260200160002090805190602001906115e59291906121b6565b505050565b60006115f58261142b565b611634576040517f08c379a000000000000000000000000000000000000000000000000000000000815260040161162b906130a1565b60405180910390fd5b600061163f83610c03565b90508073ffffffffffffffffffffffffffffffffffffffff168473ffffffffffffffffffffffffffffffffffffffff1614806116ae57508373ffffffffffffffffffffffffffffffffffffffff1661169684610597565b73ffffffffffffffffffffffffffffffffffffffff16145b806116bf57506116be8185611181565b5b91505092915050565b8273ffffffffffffffffffffffffffffffffffffffff166116e882610c03565b73ffffffffffffffffffffffffffffffffffffffff161461173e576040517f08c379a0000000000000000000000000000000000000000000000000000000008152600401611735906131c1565b60405180910390fd5b600073ffffffffffffffffffffffffffffffffffffffff168273ffffffffffffffffffffffffffffffffffffffff1614156117ae576040517f08c379a00000000000000000000000000000000000000000000000000000000081526004016117a590613041565b60405180910390fd5b6117b9838383611b2d565b6117c460008261149f565b6001600360008573ffffffffffffffffffffffffffffffffffffffff1673ffffffffffffffffffffffffffffffffffffffff168152602001908152602001600020600082825461181491906133d7565b925050819055506001600360008473ffffffffffffffffffffffffffffffffffffffff1673ffffffffffffffffffffffffffffffffffffffff168152602001908152602001600020600082825461186b9190613350565b92505081905550816002600083815260200190815260200160002060006101000a81548173ffffffffffffffffffffffffffffffffffffffff021916908373ffffffffffffffffffffffffffffffffffffffff160217905550808273ffffffffffffffffffffffffffffffffffffffff168473ffffffffffffffffffffffffffffffffffffffff167fddf252ad1be2c89b69c2b068fc378daa952ba7f163c4a11628f55a4df523b3ef60405160405180910390a4505050565b61192f8484846116c8565b61193b84848484611bce565b61197a576040517f08c379a000000000000000000000000000000000000000000000000000000000815260040161197190612fe1565b60405180910390fd5b50505050565b606061198b8261142b565b6119ca576040517f08c379a00000000000000000000000000000000000000000000000000000000081526004016119c190613161565b60405180910390fd5b60006006600084815260200190815260200160002080546119ea906134c1565b80601f0160208091040260200160405190810160405280929190818152602001828054611a16906134c1565b8015611a635780601f10611a3857610100808354040283529160200191611a63565b820191906000526020600020905b815481529060010190602001808311611a4657829003601f168201915b505050505090506000611a74611d65565b9050600081511415611a8a578192505050611acd565b600082511115611abf578082604051602001611aa7929190612e8f565b60405160208183030381529060405292505050611acd565b611ac884611d7c565b925050505b919050565b611adc8383611e23565b611ae96000848484611bce565b611b28576040517f08c379a0000000000000000000000000000000000000000000000000000000008152600401611b1f90612fe1565b60405180910390fd5b505050565b611b38838383611ff1565b600860009054906101000a900473ffffffffffffffffffffffffffffffffffffffff1673ffffffffffffffffffffffffffffffffffffffff1663844d5c728484846040518463ffffffff1660e01b8152600401611b9793929190612ece565b600060405180830381600087803b158015611bb157600080fd5b505af1158015611bc5573d6000803e3d6000fd5b50505050505050565b6000611bef8473ffffffffffffffffffffffffffffffffffffffff16611ff6565b15611d58578373ffffffffffffffffffffffffffffffffffffffff1663150b7a02611c18611497565b8786866040518563ffffffff1660e01b8152600401611c3a9493929190612f05565b602060405180830381600087803b158015611c5457600080fd5b505af1925050508015611c8557506040513d601f19601f82011682018060405250810190611c829190612633565b60015b611d08573d8060008114611cb5576040519150601f19603f3d011682016040523d82523d6000602084013e611cba565b606091505b50600081511415611d00576040517f08c379a0000000000000000000000000000000000000000000000000000000008152600401611cf790612fe1565b60405180910390fd5b805181602001fd5b63150b7a0260e01b7bffffffffffffffffffffffffffffffffffffffffffffffffffffffff1916817bffffffffffffffffffffffffffffffffffffffffffffffffffffffff191614915050611d5d565b600190505b949350505050565b606060405180602001604052806000815250905090565b6060611d878261142b565b611dc6576040517f08c379a0000000000000000000000000000000000000000000000000000000008152600401611dbd906131e1565b60405180910390fd5b6000611dd0611d65565b90506000815111611df05760405180602001604052806000815250611e1b565b80611dfa84612009565b604051602001611e0b929190612e8f565b6040516020818303038152906040525b915050919050565b600073ffffffffffffffffffffffffffffffffffffffff168273ffffffffffffffffffffffffffffffffffffffff161415611e93576040517f08c379a0000000000000000000000000000000000000000000000000000000008152600401611e8a90613141565b60405180910390fd5b611e9c8161142b565b15611edc576040517f08c379a0000000000000000000000000000000000000000000000000000000008152600401611ed390613021565b60405180910390fd5b611ee860008383611b2d565b6001600360008473ffffffffffffffffffffffffffffffffffffffff1673ffffffffffffffffffffffffffffffffffffffff1681526020019081526020016000206000828254611f389190613350565b92505081905550816002600083815260200190815260200160002060006101000a81548173ffffffffffffffffffffffffffffffffffffffff021916908373ffffffffffffffffffffffffffffffffffffffff160217905550808273ffffffffffffffffffffffffffffffffffffffff16600073ffffffffffffffffffffffffffffffffffffffff167fddf252ad1be2c89b69c2b068fc378daa952ba7f163c4a11628f55a4df523b3ef60405160405180910390a45050565b505050565b600080823b905060008111915050919050565b60606000821415612051576040518060400160405280600181526020017f300000000000000000000000000000000000000000000000000000000000000081525090506121b1565b600082905060005b6000821461208357808061206c906134f3565b915050600a8261207c91906133a6565b9150612059565b60008167ffffffffffffffff8111156120c5577f4e487b7100000000000000000000000000000000000000000000000000000000600052604160045260246000fd5b6040519080825280601f01601f1916602001820160405280156120f75781602001600182028036833780820191505090505b5090505b600085146121aa5760018261211091906133d7565b9150600a8561211f919061353c565b603061212b9190613350565b60f81b818381518110612167577f4e487b7100000000000000000000000000000000000000000000000000000000600052603260045260246000fd5b60200101907effffffffffffffffffffffffffffffffffffffffffffffffffffffffffffff1916908160001a905350600a856121a391906133a6565b94506120fb565b8093505050505b919050565b8280546121c2906134c1565b90600052602060002090601f0160209004810192826121e4576000855561222b565b82601f106121fd57805160ff191683800117855561222b565b8280016001018555821561222b579182015b8281111561222a57825182559160200191906001019061220f565b5b509050612238919061223c565b5090565b5b8082111561225557600081600090555060010161223d565b5090565b600061226c612267846132ad565b61327c565b90508281526020810184848401111561228457600080fd5b61228f84828561347f565b509392505050565b60006122aa6122a5846132dd565b61327c565b9050828152602081018484840111156122c257600080fd5b6122cd84828561347f565b509392505050565b6000813590506122e48161363a565b92915050565b6000813590506122f981613651565b92915050565b60008135905061230e81613668565b92915050565b60008151905061232381613668565b92915050565b600082601f83011261233a57600080fd5b813561234a848260208601612259565b91505092915050565b600082601f83011261236457600080fd5b8135612374848260208601612297565b91505092915050565b60008135905061238c8161367f565b92915050565b6000602082840312156123a457600080fd5b60006123b2848285016122d5565b91505092915050565b600080604083850312156123ce57600080fd5b60006123dc858286016122d5565b92505060206123ed858286016122d5565b9150509250929050565b60008060006060848603121561240c57600080fd5b600061241a868287016122d5565b935050602061242b868287016122d5565b925050604061243c8682870161237d565b9150509250925092565b6000806000806080858703121561245c57600080fd5b600061246a878288016122d5565b945050602061247b878288016122d5565b935050604061248c8782880161237d565b925050606085013567ffffffffffffffff8111156124a957600080fd5b6124b587828801612329565b91505092959194509250565b600080604083850312156124d457600080fd5b60006124e2858286016122d5565b92505060206124f3858286016122ea565b9150509250929050565b60008060008060008060c0878903121561251657600080fd5b600061252489828a016122d5565b965050602087013567ffffffffffffffff81111561254157600080fd5b61254d89828a01612353565b955050604087013567ffffffffffffffff81111561256a57600080fd5b61257689828a01612353565b945050606087013567ffffffffffffffff81111561259357600080fd5b61259f89828a01612353565b93505060806125b089828a016122ea565b92505060a06125c189828a0161237d565b9150509295509295509295565b600080604083850312156125e157600080fd5b60006125ef858286016122d5565b92505060206126008582860161237d565b9150509250929050565b60006020828403121561261c57600080fd5b600061262a848285016122ff565b91505092915050565b60006020828403121561264557600080fd5b600061265384828501612314565b91505092915050565b60006020828403121561266e57600080fd5b600061267c8482850161237d565b91505092915050565b61268e8161340b565b82525050565b61269d8161341d565b82525050565b60006126ae8261330d565b6126b88185613323565b93506126c881856020860161348e565b6126d181613629565b840191505092915050565b60006126e782613318565b6126f18185613334565b935061270181856020860161348e565b61270a81613629565b840191505092915050565b600061272082613318565b61272a8185613345565b935061273a81856020860161348e565b80840191505092915050565b6000612753603283613334565b91507f4552433732313a207472616e7366657220746f206e6f6e20455243373231526560008301527f63656976657220696d706c656d656e74657200000000000000000000000000006020830152604082019050919050565b60006127b9602683613334565b91507f4f776e61626c653a206e6577206f776e657220697320746865207a65726f206160008301527f64647265737300000000000000000000000000000000000000000000000000006020830152604082019050919050565b600061281f601c83613334565b91507f4552433732313a20746f6b656e20616c7265616479206d696e746564000000006000830152602082019050919050565b600061285f602483613334565b91507f4552433732313a207472616e7366657220746f20746865207a65726f2061646460008301527f72657373000000000000000000000000000000000000000000000000000000006020830152604082019050919050565b60006128c5602283613334565b91507f43616c6c6572206973206e6f742074686520666163746f727920636f6e74726160008301527f63740000000000000000000000000000000000000000000000000000000000006020830152604082019050919050565b600061292b601983613334565b91507f4552433732313a20617070726f766520746f2063616c6c6572000000000000006000830152602082019050919050565b600061296b602c83613334565b91507f4552433732313a206f70657261746f7220717565727920666f72206e6f6e657860008301527f697374656e7420746f6b656e00000000000000000000000000000000000000006020830152604082019050919050565b60006129d1603883613334565b91507f4552433732313a20617070726f76652063616c6c6572206973206e6f74206f7760008301527f6e6572206e6f7220617070726f76656420666f7220616c6c00000000000000006020830152604082019050919050565b6000612a37602a83613334565b91507f4552433732313a2062616c616e636520717565727920666f7220746865207a6560008301527f726f2061646472657373000000000000000000000000000000000000000000006020830152604082019050919050565b6000612a9d602983613334565b91507f4552433732313a206f776e657220717565727920666f72206e6f6e657869737460008301527f656e7420746f6b656e00000000000000000000000000000000000000000000006020830152604082019050919050565b6000612b03602e83613334565b91507f45524337323155524953746f726167653a2055524920736574206f66206e6f6e60008301527f6578697374656e7420746f6b656e0000000000000000000000000000000000006020830152604082019050919050565b6000612b69602083613334565b91507f4552433732313a206d696e7420746f20746865207a65726f20616464726573736000830152602082019050919050565b6000612ba9603183613334565b91507f45524337323155524953746f726167653a2055524920717565727920666f722060008301527f6e6f6e6578697374656e7420746f6b656e0000000000000000000000000000006020830152604082019050919050565b6000612c0f602c83613334565b91507f4552433732313a20617070726f76656420717565727920666f72206e6f6e657860008301527f697374656e7420746f6b656e00000000000000000000000000000000000000006020830152604082019050919050565b6000612c75602083613334565b91507f4f776e61626c653a2063616c6c6572206973206e6f7420746865206f776e65726000830152602082019050919050565b6000612cb5602983613334565b91507f4552433732313a207472616e73666572206f6620746f6b656e2074686174206960008301527f73206e6f74206f776e00000000000000000000000000000000000000000000006020830152604082019050919050565b6000612d1b602f83613334565b91507f4552433732314d657461646174613a2055524920717565727920666f72206e6f60008301527f6e6578697374656e7420746f6b656e00000000000000000000000000000000006020830152604082019050919050565b6000612d81602183613334565b91507f4552433732313a20617070726f76616c20746f2063757272656e74206f776e6560008301527f72000000000000000000000000000000000000000000000000000000000000006020830152604082019050919050565b6000612de7603183613334565b91507f4552433732313a207472616e736665722063616c6c6572206973206e6f74206f60008301527f776e6572206e6f7220617070726f7665640000000000000000000000000000006020830152604082019050919050565b6000612e4d601683613334565b91507f41646472657373206973206e6f7420636f7272656374000000000000000000006000830152602082019050919050565b612e8981613475565b82525050565b6000612e9b8285612715565b9150612ea78284612715565b91508190509392505050565b6000602082019050612ec86000830184612685565b92915050565b6000606082019050612ee36000830186612685565b612ef06020830185612685565b612efd6040830184612e80565b949350505050565b6000608082019050612f1a6000830187612685565b612f276020830186612685565b612f346040830185612e80565b8181036060830152612f4681846126a3565b905095945050505050565b6000602082019050612f666000830184612694565b92915050565b60006020820190508181036000830152612f8681846126dc565b905092915050565b60006080820190508181036000830152612fa881876126dc565b90508181036020830152612fbc81866126dc565b9050612fcb6040830185612694565b612fd86060830184612e80565b95945050505050565b60006020820190508181036000830152612ffa81612746565b9050919050565b6000602082019050818103600083015261301a816127ac565b9050919050565b6000602082019050818103600083015261303a81612812565b9050919050565b6000602082019050818103600083015261305a81612852565b9050919050565b6000602082019050818103600083015261307a816128b8565b9050919050565b6000602082019050818103600083015261309a8161291e565b9050919050565b600060208201905081810360008301526130ba8161295e565b9050919050565b600060208201905081810360008301526130da816129c4565b9050919050565b600060208201905081810360008301526130fa81612a2a565b9050919050565b6000602082019050818103600083015261311a81612a90565b9050919050565b6000602082019050818103600083015261313a81612af6565b9050919050565b6000602082019050818103600083015261315a81612b5c565b9050919050565b6000602082019050818103600083015261317a81612b9c565b9050919050565b6000602082019050818103600083015261319a81612c02565b9050919050565b600060208201905081810360008301526131ba81612c68565b9050919050565b600060208201905081810360008301526131da81612ca8565b9050919050565b600060208201905081810360008301526131fa81612d0e565b9050919050565b6000602082019050818103600083015261321a81612d74565b9050919050565b6000602082019050818103600083015261323a81612dda565b9050919050565b6000602082019050818103600083015261325a81612e40565b9050919050565b60006020820190506132766000830184612e80565b92915050565b6000604051905081810181811067ffffffffffffffff821117156132a3576132a26135fa565b5b8060405250919050565b600067ffffffffffffffff8211156132c8576132c76135fa565b5b601f19601f8301169050602081019050919050565b600067ffffffffffffffff8211156132f8576132f76135fa565b5b601f19601f8301169050602081019050919050565b600081519050919050565b600081519050919050565b600082825260208201905092915050565b600082825260208201905092915050565b600081905092915050565b600061335b82613475565b915061336683613475565b9250827fffffffffffffffffffffffffffffffffffffffffffffffffffffffffffffffff0382111561339b5761339a61356d565b5b828201905092915050565b60006133b182613475565b91506133bc83613475565b9250826133cc576133cb61359c565b5b828204905092915050565b60006133e282613475565b91506133ed83613475565b925082821015613400576133ff61356d565b5b828203905092915050565b600061341682613455565b9050919050565b60008115159050919050565b60007fffffffff0000000000000000000000000000000000000000000000000000000082169050919050565b600073ffffffffffffffffffffffffffffffffffffffff82169050919050565b6000819050919050565b82818337600083830152505050565b60005b838110156134ac578082015181840152602081019050613491565b838111156134bb576000848401525b50505050565b600060028204905060018216806134d957607f821691505b602082108114156134ed576134ec6135cb565b5b50919050565b60006134fe82613475565b91507fffffffffffffffffffffffffffffffffffffffffffffffffffffffffffffffff8214156135315761353061356d565b5b600182019050919050565b600061354782613475565b915061355283613475565b9250826135625761356161359c565b5b828206905092915050565b7f4e487b7100000000000000000000000000000000000000000000000000000000600052601160045260246000fd5b7f4e487b7100000000000000000000000000000000000000000000000000000000600052601260045260246000fd5b7f4e487b7100000000000000000000000000000000000000000000000000000000600052602260045260246000fd5b7f4e487b7100000000000000000000000000000000000000000000000000000000600052604160045260246000fd5b6000601f19601f8301169050919050565b6136438161340b565b811461364e57600080fd5b50565b61365a8161341d565b811461366557600080fd5b50565b61367181613429565b811461367c57600080fd5b50565b61368881613475565b811461369357600080fd5b5056fea2646970667358221220cf21b0c07dc77d27839bf1b4c0a18fccc2fd38038baaf51a31f792bfa14f806b64736f6c63430008000033",
  "linkReferences": {},
  "deployedLinkReferences": {}
}